8=FIX.4.4|9=72|35=A|34=1|49=INITIATOR|52=20260317-19:31:50.645|56=ACCEPTOR|98=0|108=30|10=010|8=FIX.4.4|9=72|35=A|34=2|49=INITIATOR|52=20260317-19:32:05.644|56=ACCEPTOR|98=0|108=30|10=011|8=FIX.4.4|9=72|35=A|34=3|49=INITIATOR|52=20260317-19:32:32.335|56=ACCEPTOR|98=0|108=30|10=009|8=FIX.4.4|9=72|35=A|34=4|49=INITIATOR|52=20260317-20:06:45.178|56=ACCEPTOR|98=0|108=30|10=012|8=FIX.4.4|9=72|35=A|34=5|49=INITIATOR|52=20260317-20:07:03.105|56=ACCEPTOR|98=0|108=30|10=254|8=FIX.4.4|9=72|35=A|34=6|49=INITIATOR|52=20260317-20:07:39.771|56=ACCEPTOR|98=0|108=30|10=017|8=FIX.4.4|9=72|35=A|34=7|49=INITIATOR|52=20260317-20:07:54.771|56=ACCEPTOR|98=0|108=30|10=015|8=FIX.4.4|9=72|35=A|34=8|49=INITIATOR|52=20260317-20:08:12.678|56=ACCEPTOR|98=0|108=30|10=017|8=FIX.4.4|9=72|35=A|34=9|49=INITIATOR|52=20260317-20:08:27.655|56=ACCEPTOR|98=0|108=30|10=019|8=FIX.4.4|9=73|35=A|34=10|49=INITIATOR|52=20260317-20:09:05.871|56=ACCEPTOR|98=0|108=30|10=057|8=FIX.4.4|9=73|35=A|34=11|49=INITIATOR|52=20260317-20:09:23.835|56=ACCEPTOR|98=0|108=30|10=058|8=FIX.4.4|9=73|35=A|34=12|49=INITIATOR|52=20260317-20:10:02.693|56=ACCEPTOR|98=0|108=30|10=050|8=FIX.4.4|9=73|35=A|34=13|49=INITIATOR|52=20260317-20:10:17.692|56=ACCEPTOR|98=0|108=30|10=056|8=FIX.4.4|9=73|35=A|34=14|49=INITIATOR|52=20260317-20:10:35.645|56=ACCEPTOR|98=0|108=30|10=055|8=FIX.4.4|9=73|35=A|34=15|49=INITIATOR|52=20260317-20:10:50.625|56=ACCEPTOR|98=0|108=30|10=051|8=FIX.4.4|9=73|35=A|34=16|49=INITIATOR|52=20260317-20:11:08.527|56=ACCEPTOR|98=0|108=30|10=057|8=FIX.4.4|9=73|35=A|34=17|49=INITIATOR|52=20260317-20:11:23.481|56=ACCEPTOR|98=0|108=30|10=054|8=FIX.4.4|9=73|35=A|34=18|49=INITIATOR|52=20260317-20:11:38.431|56=ACCEPTOR|98=0|108=30|10=056|8=FIX.4.4|9=73|35=A|34=19|49=INITIATOR|52=20260317-20:11:53.344|56=ACCEPTOR|98=0|108=30|10=057|8=FIX.4.4|9=73|35=A|34=20|49=INITIATOR|52=20260317-20:12:08.272|56=ACCEPTOR|98=0|108=30|10=050|8=FIX.4.4|9=73|35=A|34=21|49=INITIATOR|52=20260317-20:12:26.087|56=ACCEPTOR|98=0|108=30|10=055|8=FIX.4.4|9=73|35=A|34=22|49=INITIATOR|52=20260317-20:12:41.978|56=ACCEPTOR|98=0|108=30|10=062|8=FIX.4.4|9=73|35=A|34=23|49=INITIATOR|52=20260317-20:12:59.813|56=ACCEPTOR|98=0|108=30|10=060|8=FIX.4.4|9=73|35=A|34=24|49=INITIATOR|52=20260317-20:13:14.702|56=ACCEPTOR|98=0|108=30|10=050|8=FIX.4.4|9=73|35=A|34=25|49=INITIATOR|52=20260317-20:13:32.530|56=ACCEPTOR|98=0|108=30|10=050|8=FIX.4.4|9=73|35=A|34=26|49=INITIATOR|52=20260317-20:13:47.394|56=ACCEPTOR|98=0|108=30|10=065|8=FIX.4.4|9=73|35=A|34=27|49=INITIATOR|52=20260317-20:14:05.193|56=ACCEPTOR|98=0|108=30|10=058|8=FIX.4.4|9=73|35=A|34=28|49=INITIATOR|52=20260317-20:14:20.040|56=ACCEPTOR|98=0|108=30|10=047|8=FIX.4.4|9=73|35=A|34=29|49=INITIATOR|52=20260317-20:14:38.740|56=ACCEPTOR|98=0|108=30|10=064|8=FIX.4.4|9=73|35=A|34=30|49=INITIATOR|52=20260317-20:14:53.559|56=ACCEPTOR|98=0|108=30|10=061|8=FIX.4.4|9=73|35=A|34=31|49=INITIATOR|52=20260317-20:15:21.594|56=ACCEPTOR|98=0|108=30|10=057|8=FIX.4.4|9=73|35=A|34=32|49=INITIATOR|52=20260317-20:15:26.591|56=ACCEPTOR|98=0|108=30|10=060|8=FIX.4.4|9=146|35=S|34=33|49=INITIATOR|52=20260317-20:15:26.608|56=ACCEPTOR|55=AAPL|60=20260317-20:15:26|117=507e9703|132=185.1956|133=185.2882|134=1400|135=200|10=207|8=FIX.4.4|9=135|35=AE|34=34|49=INITIATOR|52=20260317-20:15:26.609|56=ACCEPTOR|31=185.3033|32=1700|54=1|55=AAPL|60=20260317-20:15:26|487=0|571=e97312e7|10=214|8=FIX.4.4|9=147|35=S|34=35|49=INITIATOR|52=20260317-20:15:26.609|56=ACCEPTOR|55=MSFT|60=20260317-20:15:26|117=94877bc3|132=414.2316|133=414.4388|134=2100|135=4400|10=074|8=FIX.4.4|9=135|35=AE|34=36|49=INITIATOR|52=20260317-20:15:26.609|56=ACCEPTOR|31=414.3688|32=1600|54=2|55=MSFT|60=20260317-20:15:26|487=0|571=0a16a404|10=233|8=FIX.4.4|9=147|35=S|34=37|49=INITIATOR|52=20260317-20:15:26.609|56=ACCEPTOR|55=GOOGL|60=20260317-20:15:26|117=400a04d9|132=174.9006|133=174.988|134=2400|135=4400|10=083|8=FIX.4.4|9=136|35=AE|34=38|49=INITIATOR|52=20260317-20:15:26.609|56=ACCEPTOR|31=174.9678|32=1500|54=2|55=GOOGL|60=20260317-20:15:26|487=0|571=aa956f1b|10=159|8=FIX.4.4|9=146|35=S|34=39|49=INITIATOR|52=20260317-20:15:26.609|56=ACCEPTOR|55=AMZN|60=20260317-20:15:26|117=18446e8b|132=194.6805|133=194.7779|134=2900|135=200|10=046|8=FIX.4.4|9=135|35=AE|34=40|49=INITIATOR|52=20260317-20:15:26.609|56=ACCEPTOR|31=194.7754|32=1000|54=1|55=AMZN|60=20260317-20:15:26|487=0|571=114969e9|10=199|8=FIX.4.4|9=147|35=S|34=41|49=INITIATOR|52=20260317-20:15:26.609|56=ACCEPTOR|55=TSLA|60=20260317-20:15:26|117=1bbdd915|132=174.9964|133=175.0838|134=4800|135=3000|10=169|8=FIX.4.4|9=133|35=AE|34=42|49=INITIATOR|52=20260317-20:15:26.610|56=ACCEPTOR|31=175.027|32=400|54=2|55=TSLA|60=20260317-20:15:26|487=0|571=3fdbcca9|10=053|8=FIX.4.4|9=147|35=S|34=43|49=INITIATOR|52=20260317-20:15:28.610|56=ACCEPTOR|55=AAPL|60=20260317-20:15:28|117=62b25814|132=185.4276|133=185.5203|134=2200|135=3300|10=239|8=FIX.4.4|9=135|35=AE|34=44|49=INITIATOR|52=20260317-20:15:28.610|56=ACCEPTOR|31=185.4431|32=1000|54=1|55=AAPL|60=20260317-20:15:28|487=0|571=e1359111|10=146|8=FIX.4.4|9=145|35=S|34=45|49=INITIATOR|52=20260317-20:15:28.610|56=ACCEPTOR|55=MSFT|60=20260317-20:15:28|117=15fe9e3a|132=414.35|133=414.5572|134=2800|135=3500|10=060|8=FIX.4.4|9=135|35=AE|34=46|49=INITIATOR|52=20260317-20:15:28.611|56=ACCEPTOR|31=414.6389|32=1600|54=1|55=MSFT|60=20260317-20:15:28|487=0|571=5cd6e001|10=030|8=FIX.4.4|9=147|35=S|34=47|49=INITIATOR|52=20260317-20:15:28.611|56=ACCEPTOR|55=GOOGL|60=20260317-20:15:28|117=bd24b022|132=175.2284|133=175.316|134=3900|135=1100|10=113|8=FIX.4.4|9=136|35=AE|34=48|49=INITIATOR|52=20260317-20:15:28.611|56=ACCEPTOR|31=175.3197|32=1400|54=1|55=GOOGL|60=20260317-20:15:28|487=0|571=c20ad5d6|10=140|8=FIX.4.4|9=147|35=S|34=49|49=INITIATOR|52=20260317-20:15:28.611|56=ACCEPTOR|55=AMZN|60=20260317-20:15:28|117=0f0331f3|132=194.6458|133=194.7432|134=4000|135=1700|10=066|8=FIX.4.4|9=134|35=AE|34=50|49=INITIATOR|52=20260317-20:15:28.611|56=ACCEPTOR|31=194.671|32=1100|54=1|55=AMZN|60=20260317-20:15:28|487=0|571=3a566b2e|10=222|8=FIX.4.4|9=147|35=S|34=51|49=INITIATOR|52=20260317-20:15:28.611|56=ACCEPTOR|55=TSLA|60=20260317-20:15:28|117=fc3b8a63|132=175.0645|133=175.1521|134=3400|135=4200|10=147|8=FIX.4.4|9=134|35=AE|34=52|49=INITIATOR|52=20260317-20:15:28.611|56=ACCEPTOR|31=175.039|32=1400|54=1|55=TSLA|60=20260317-20:15:28|487=0|571=e059c93b|10=228|8=FIX.4.4|9=147|35=S|34=53|49=INITIATOR|52=20260317-20:15:30.612|56=ACCEPTOR|55=AAPL|60=20260317-20:15:30|117=fb942bb1|132=185.5098|133=185.6026|134=1400|135=1900|10=126|8=FIX.4.4|9=135|35=AE|34=54|49=INITIATOR|52=20260317-20:15:30.612|56=ACCEPTOR|31=185.6183|32=1500|54=2|55=AAPL|60=20260317-20:15:30|487=0|571=2dc8056b|10=247|8=FIX.4.4|9=147|35=S|34=55|49=INITIATOR|52=20260317-20:15:30.612|56=ACCEPTOR|55=MSFT|60=20260317-20:15:30|117=9b00df4a|132=414.1333|133=414.3404|134=3200|135=4100|10=124|8=FIX.4.4|9=135|35=AE|34=56|49=INITIATOR|52=20260317-20:15:30.612|56=ACCEPTOR|31=414.0782|32=1300|54=2|55=MSFT|60=20260317-20:15:30|487=0|571=eed017ce|10=109|8=FIX.4.4|9=147|35=S|34=57|49=INITIATOR|52=20260317-20:15:30.613|56=ACCEPTOR|55=GOOGL|60=20260317-20:15:30|117=d9607cdc|132=175.3059|133=175.3936|134=700|135=4900|10=186|8=FIX.4.4|9=136|35=AE|34=58|49=INITIATOR|52=20260317-20:15:30.613|56=ACCEPTOR|31=175.3233|32=1900|54=2|55=GOOGL|60=20260317-20:15:30|487=0|571=2f065b24|10=032|8=FIX.4.4|9=147|35=S|34=59|49=INITIATOR|52=20260317-20:15:30.613|56=ACCEPTOR|55=AMZN|60=20260317-20:15:30|117=bcd5c928|132=194.9019|133=194.9995|134=1800|135=4600|10=184|8=FIX.4.4|9=134|35=AE|34=60|49=INITIATOR|52=20260317-20:15:30.613|56=ACCEPTOR|31=195.0444|32=700|54=2|55=AMZN|60=20260317-20:15:30|487=0|571=ee3160ec|10=006|8=FIX.4.4|9=146|35=S|34=61|49=INITIATOR|52=20260317-20:15:30.613|56=ACCEPTOR|55=TSLA|60=20260317-20:15:30|117=6bbd389c|132=174.8873|133=174.9748|134=1300|135=200|10=113|8=FIX.4.4|9=134|35=AE|34=62|49=INITIATOR|52=20260317-20:15:30.613|56=ACCEPTOR|31=174.8529|32=300|54=2|55=TSLA|60=20260317-20:15:30|487=0|571=7c924614|10=131|8=FIX.4.4|9=147|35=S|34=63|49=INITIATOR|52=20260317-20:15:32.614|56=ACCEPTOR|55=AAPL|60=20260317-20:15:32|117=546b7e26|132=185.4871|133=185.5799|134=4300|135=4400|10=060|8=FIX.4.4|9=133|35=AE|34=64|49=INITIATOR|52=20260317-20:15:32.614|56=ACCEPTOR|31=185.526|32=500|54=2|55=AAPL|60=20260317-20:15:32|487=0|571=d3547640|10=057|8=FIX.4.4|9=147|35=S|34=65|49=INITIATOR|52=20260317-20:15:32.614|56=ACCEPTOR|55=MSFT|60=20260317-20:15:32|117=ee0e8696|132=413.3856|133=413.5922|134=1300|135=1900|10=122|8=FIX.4.4|9=135|35=AE|34=66|49=INITIATOR|52=20260317-20:15:32.614|56=ACCEPTOR|31=413.3567|32=1300|54=2|55=MSFT|60=20260317-20:15:32|487=0|571=75ec2978|10=247|8=FIX.4.4|9=148|35=S|34=67|49=INITIATOR|52=20260317-20:15:32.615|56=ACCEPTOR|55=GOOGL|60=20260317-20:15:32|117=abc9c593|132=175.1451|133=175.2327|134=1700|135=2300|10=221|8=FIX.4.4|9=135|35=AE|34=68|49=INITIATOR|52=20260317-20:15:32.615|56=ACCEPTOR|31=175.1723|32=500|54=2|55=GOOGL|60=20260317-20:15:32|487=0|571=8a90dced|10=138|8=FIX.4.4|9=146|35=S|34=69|49=INITIATOR|52=20260317-20:15:32.615|56=ACCEPTOR|55=AMZN|60=20260317-20:15:32|117=362db3d6|132=194.7171|133=194.8145|134=300|135=3900|10=067|8=FIX.4.4|9=134|35=AE|34=70|49=INITIATOR|52=20260317-20:15:32.615|56=ACCEPTOR|31=194.7845|32=200|54=1|55=AMZN|60=20260317-20:15:32|487=0|571=9e591c42|10=188|8=FIX.4.4|9=146|35=S|34=71|49=INITIATOR|52=20260317-20:15:32.615|56=ACCEPTOR|55=TSLA|60=20260317-20:15:32|117=d5173000|132=175.117|133=175.2046|134=3600|135=4100|10=192|8=FIX.4.4|9=135|35=AE|34=72|49=INITIATOR|52=20260317-20:15:32.615|56=ACCEPTOR|31=175.2088|32=1300|54=1|55=TSLA|60=20260317-20:15:32|487=0|571=20bae94f|10=063|8=FIX.4.4|9=147|35=S|34=73|49=INITIATOR|52=20260317-20:15:34.616|56=ACCEPTOR|55=AAPL|60=20260317-20:15:34|117=285c38ef|132=185.3239|133=185.4166|134=2500|135=3700|10=104|8=FIX.4.4|9=135|35=AE|34=74|49=INITIATOR|52=20260317-20:15:34.616|56=ACCEPTOR|31=185.3447|32=1300|54=1|55=AAPL|60=20260317-20:15:34|487=0|571=a6343256|10=162|8=FIX.4.4|9=147|35=S|34=75|49=INITIATOR|52=20260317-20:15:34.616|56=ACCEPTOR|55=MSFT|60=20260317-20:15:34|117=e27815db|132=412.5697|133=412.7761|134=2400|135=1100|10=119|8=FIX.4.4|9=134|35=AE|34=76|49=INITIATOR|52=20260317-20:15:34.616|56=ACCEPTOR|31=412.6447|32=800|54=1|55=MSFT|60=20260317-20:15:34|487=0|571=d7d35a59|10=247|8=FIX.4.4|9=145|35=S|34=77|49=INITIATOR|52=20260317-20:15:34.616|56=ACCEPTOR|55=GOOGL|60=20260317-20:15:34|117=cd37e0be|132=174.8106|133=174.898|134=100|135=100|10=124|8=FIX.4.4|9=135|35=AE|34=78|49=INITIATOR|52=20260317-20:15:34.616|56=ACCEPTOR|31=174.8431|32=600|54=2|55=GOOGL|60=20260317-20:15:34|487=0|571=300b2a4e|10=034|8=FIX.4.4|9=147|35=S|34=79|49=INITIATOR|52=20260317-20:15:34.617|56=ACCEPTOR|55=AMZN|60=20260317-20:15:34|117=6ae456fb|132=194.7904|133=194.8878|134=3300|135=4700|10=195|8=FIX.4.4|9=135|35=AE|34=80|49=INITIATOR|52=20260317-20:15:34.617|56=ACCEPTOR|31=194.9312|32=1400|54=2|55=AMZN|60=20260317-20:15:34|487=0|571=384f7ca9|10=034|8=FIX.4.4|9=147|35=S|34=81|49=INITIATOR|52=20260317-20:15:34.617|56=ACCEPTOR|55=TSLA|60=20260317-20:15:34|117=0417b9e6|132=174.9201|133=175.0075|134=1600|135=1700|10=057|8=FIX.4.4|9=135|35=AE|34=82|49=INITIATOR|52=20260317-20:15:34.617|56=ACCEPTOR|31=175.0222|32=1400|54=2|55=TSLA|60=20260317-20:15:34|487=0|571=23e7f02d|10=012|8=FIX.4.4|9=147|35=S|34=83|49=INITIATOR|52=20260317-20:15:36.617|56=ACCEPTOR|55=AAPL|60=20260317-20:15:36|117=540402db|132=184.9738|133=185.0662|134=1600|135=4200|10=045|8=FIX.4.4|9=134|35=AE|34=84|49=INITIATOR|52=20260317-20:15:36.618|56=ACCEPTOR|31=184.9423|32=200|54=1|55=AAPL|60=20260317-20:15:36|487=0|571=64325974|10=079|8=FIX.4.4|9=147|35=S|34=85|49=INITIATOR|52=20260317-20:15:36.618|56=ACCEPTOR|55=MSFT|60=20260317-20:15:36|117=c17df1a2|132=413.2042|133=413.4108|134=1700|135=2800|10=150|8=FIX.4.4|9=135|35=AE|34=86|49=INITIATOR|52=20260317-20:15:36.618|56=ACCEPTOR|31=413.4547|32=2000|54=1|55=MSFT|60=20260317-20:15:36|487=0|571=250202e9|10=188|8=FIX.4.4|9=148|35=S|34=87|49=INITIATOR|52=20260317-20:15:36.618|56=ACCEPTOR|55=GOOGL|60=20260317-20:15:36|117=223e3ea4|132=174.7777|133=174.8651|134=3700|135=1300|10=198|8=FIX.4.4|9=135|35=AE|34=88|49=INITIATOR|52=20260317-20:15:36.618|56=ACCEPTOR|31=174.8012|32=600|54=1|55=GOOGL|60=20260317-20:15:36|487=0|571=bae15d0e|10=137|8=FIX.4.4|9=147|35=S|34=89|49=INITIATOR|52=20260317-20:15:36.618|56=ACCEPTOR|55=AMZN|60=20260317-20:15:36|117=1398ebce|132=194.4925|133=194.5899|134=3500|135=2600|10=201|8=FIX.4.4|9=134|35=AE|34=90|49=INITIATOR|52=20260317-20:15:36.619|56=ACCEPTOR|31=194.5508|32=400|54=1|55=AMZN|60=20260317-20:15:36|487=0|571=56162f4e|10=195|8=FIX.4.4|9=147|35=S|34=91|49=INITIATOR|52=20260317-20:15:36.619|56=ACCEPTOR|55=TSLA|60=20260317-20:15:36|117=cf97f32d|132=175.1183|133=175.2059|134=4200|135=4700|10=174|8=FIX.4.4|9=135|35=AE|34=92|49=INITIATOR|52=20260317-20:15:36.619|56=ACCEPTOR|31=175.2007|32=1000|54=1|55=TSLA|60=20260317-20:15:36|487=0|571=186bd27f|10=024|8=FIX.4.4|9=145|35=S|34=93|49=INITIATOR|52=20260317-20:15:38.619|56=ACCEPTOR|55=AAPL|60=20260317-20:15:38|117=c51214e2|132=185.1364|133=185.229|134=600|135=3500|10=200|8=FIX.4.4|9=135|35=AE|34=94|49=INITIATOR|52=20260317-20:15:38.619|56=ACCEPTOR|31=185.2706|32=2000|54=1|55=AAPL|60=20260317-20:15:38|487=0|571=5fea8086|10=019|8=FIX.4.4|9=146|35=S|34=95|49=INITIATOR|52=20260317-20:15:38.620|56=ACCEPTOR|55=MSFT|60=20260317-20:15:38|117=a6068c58|132=413.0886|133=413.2952|134=2900|135=500|10=032|8=FIX.4.4|9=134|35=AE|34=96|49=INITIATOR|52=20260317-20:15:38.620|56=ACCEPTOR|31=413.2525|32=200|54=1|55=MSFT|60=20260317-20:15:38|487=0|571=27b0b17c|10=226|8=FIX.4.4|9=148|35=S|34=97|49=INITIATOR|52=20260317-20:15:38.620|56=ACCEPTOR|55=GOOGL|60=20260317-20:15:38|117=d95ba25d|132=174.8354|133=174.9228|134=1500|135=3500|10=244|8=FIX.4.4|9=135|35=AE|34=98|49=INITIATOR|52=20260317-20:15:38.620|56=ACCEPTOR|31=174.9325|32=200|54=1|55=GOOGL|60=20260317-20:15:38|487=0|571=7f1b570f|10=054|8=FIX.4.4|9=147|35=S|34=99|49=INITIATOR|52=20260317-20:15:38.620|56=ACCEPTOR|55=AMZN|60=20260317-20:15:38|117=045d3e10|132=194.3196|133=194.4168|134=3400|135=1800|10=076|8=FIX.4.4|9=135|35=AE|34=100|49=INITIATOR|52=20260317-20:15:38.620|56=ACCEPTOR|31=194.2907|32=800|54=2|55=AMZN|60=20260317-20:15:38|487=0|571=89ff8ed7|10=095|8=FIX.4.4|9=142|35=S|34=101|49=INITIATOR|52=20260317-20:15:38.620|56=ACCEPTOR|55=TSLA|60=20260317-20:15:38|117=779e8bac|132=175|133=175.0874|134=100|135=4900|10=164|8=FIX.4.4|9=135|35=AE|34=102|49=INITIATOR|52=20260317-20:15:38.620|56=ACCEPTOR|31=175.1078|32=400|54=2|55=TSLA|60=20260317-20:15:38|487=0|571=b570e9d3|10=022|8=FIX.4.4|9=146|35=S|34=103|49=INITIATOR|52=20260317-20:15:40.621|56=ACCEPTOR|55=AAPL|60=20260317-20:15:40|117=c988ab0c|132=185.365|133=185.4577|134=400|135=1800|10=080|8=FIX.4.4|9=136|35=AE|34=104|49=INITIATOR|52=20260317-20:15:40.621|56=ACCEPTOR|31=185.4397|32=1900|54=1|55=AAPL|60=20260317-20:15:40|487=0|571=331a36b7|10=250|8=FIX.4.4|9=148|35=S|34=105|49=INITIATOR|52=20260317-20:15:40.621|56=ACCEPTOR|55=MSFT|60=20260317-20:15:40|117=0d9fd3ac|132=412.8757|133=413.0822|134=4800|135=1000|10=241|8=FIX.4.4|9=136|35=AE|34=106|49=INITIATOR|52=20260317-20:15:40.621|56=ACCEPTOR|31=412.9543|32=1600|54=1|55=MSFT|60=20260317-20:15:40|487=0|571=8eaca6a3|10=158|8=FIX.4.4|9=149|35=S|34=107|49=INITIATOR|52=20260317-20:15:40.621|56=ACCEPTOR|55=GOOGL|60=20260317-20:15:40|117=65428462|132=174.8409|133=174.9283|134=3700|135=2200|10=087|8=FIX.4.4|9=136|35=AE|34=108|49=INITIATOR|52=20260317-20:15:40.622|56=ACCEPTOR|31=174.8171|32=300|54=2|55=GOOGL|60=20260317-20:15:40|487=0|571=164154a4|10=235|8=FIX.4.4|9=147|35=S|34=109|49=INITIATOR|52=20260317-20:15:40.622|56=ACCEPTOR|55=AMZN|60=20260317-20:15:40|117=22ddc5d8|132=194.5001|133=194.5975|134=4800|135=800|10=160|8=FIX.4.4|9=135|35=AE|34=110|49=INITIATOR|52=20260317-20:15:40.622|56=ACCEPTOR|31=194.4741|32=300|54=2|55=AMZN|60=20260317-20:15:40|487=0|571=697fa221|10=218|8=FIX.4.4|9=148|35=S|34=111|49=INITIATOR|52=20260317-20:15:40.622|56=ACCEPTOR|55=TSLA|60=20260317-20:15:40|117=98c15021|132=175.0177|133=175.1051|134=4100|135=2300|10=031|8=FIX.4.4|9=136|35=AE|34=112|49=INITIATOR|52=20260317-20:15:40.622|56=ACCEPTOR|31=175.0776|32=1200|54=1|55=TSLA|60=20260317-20:15:40|487=0|571=1302971c|10=213|8=FIX.4.4|9=147|35=S|34=113|49=INITIATOR|52=20260317-20:15:42.622|56=ACCEPTOR|55=AAPL|60=20260317-20:15:42|117=fd93fbe9|132=185.3538|133=185.4464|134=100|135=4200|10=187|8=FIX.4.4|9=136|35=AE|34=114|49=INITIATOR|52=20260317-20:15:42.623|56=ACCEPTOR|31=185.4112|32=1200|54=1|55=AAPL|60=20260317-20:15:42|487=0|571=bb0379f6|10=036|8=FIX.4.4|9=148|35=S|34=115|49=INITIATOR|52=20260317-20:15:42.623|56=ACCEPTOR|55=MSFT|60=20260317-20:15:42|117=38c15541|132=413.3319|133=413.5385|134=4100|135=3400|10=054|8=FIX.4.4|9=136|35=AE|34=116|49=INITIATOR|52=20260317-20:15:42.623|56=ACCEPTOR|31=413.4713|32=1700|54=1|55=MSFT|60=20260317-20:15:42|487=0|571=2441d974|10=232|8=FIX.4.4|9=149|35=S|34=117|49=INITIATOR|52=20260317-20:15:42.623|56=ACCEPTOR|55=GOOGL|60=20260317-20:15:42|117=a4e97ff0|132=174.5848|133=174.6722|134=3200|135=4500|10=030|8=FIX.4.4|9=136|35=AE|34=118|49=INITIATOR|52=20260317-20:15:42.623|56=ACCEPTOR|31=174.6802|32=600|54=2|55=GOOGL|60=20260317-20:15:42|487=0|571=9c6bad77|10=144|8=FIX.4.4|9=148|35=S|34=119|49=INITIATOR|52=20260317-20:15:42.624|56=ACCEPTOR|55=AMZN|60=20260317-20:15:42|117=aa695274|132=194.2885|133=194.3857|134=3200|135=2400|10=128|8=FIX.4.4|9=136|35=AE|34=120|49=INITIATOR|52=20260317-20:15:42.624|56=ACCEPTOR|31=194.4307|32=1200|54=1|55=AMZN|60=20260317-20:15:42|487=0|571=4ecf711b|10=106|8=FIX.4.4|9=148|35=S|34=121|49=INITIATOR|52=20260317-20:15:42.624|56=ACCEPTOR|55=TSLA|60=20260317-20:15:42|117=8bee0376|132=174.7549|133=174.8423|134=2300|135=3600|10=163|8=FIX.4.4|9=135|35=AE|34=122|49=INITIATOR|52=20260317-20:15:42.624|56=ACCEPTOR|31=174.7959|32=600|54=2|55=TSLA|60=20260317-20:15:42|487=0|571=8bdd39d0|10=080|8=FIX.4.4|9=147|35=S|34=123|49=INITIATOR|52=20260317-20:15:44.624|56=ACCEPTOR|55=AAPL|60=20260317-20:15:44|117=f54f0ceb|132=185.3051|133=185.3978|134=700|135=2100|10=183|8=FIX.4.4|9=136|35=AE|34=124|49=INITIATOR|52=20260317-20:15:44.625|56=ACCEPTOR|31=185.4378|32=1300|54=2|55=AAPL|60=20260317-20:15:44|487=0|571=f2111e1d|10=045|8=FIX.4.4|9=148|35=S|34=125|49=INITIATOR|52=20260317-20:15:44.625|56=ACCEPTOR|55=MSFT|60=20260317-20:15:44|117=f16c1d35|132=414.1492|133=414.3563|134=3100|135=2100|10=149|8=FIX.4.4|9=136|35=AE|34=126|49=INITIATOR|52=20260317-20:15:44.625|56=ACCEPTOR|31=414.0953|32=1500|54=1|55=MSFT|60=20260317-20:15:44|487=0|571=3ae4e09d|10=124|8=FIX.4.4|9=148|35=S|34=127|49=INITIATOR|52=20260317-20:15:44.625|56=ACCEPTOR|55=GOOGL|60=20260317-20:15:44|117=3001efaf|132=174.3672|133=174.4544|134=4100|135=300|10=215|8=FIX.4.4|9=137|35=AE|34=128|49=INITIATOR|52=20260317-20:15:44.625|56=ACCEPTOR|31=174.3342|32=2000|54=1|55=GOOGL|60=20260317-20:15:44|487=0|571=b3bf08b2|10=177|8=FIX.4.4|9=147|35=S|34=129|49=INITIATOR|52=20260317-20:15:44.625|56=ACCEPTOR|55=AMZN|60=20260317-20:15:44|117=9731926f|132=194.3593|133=194.4565|134=100|135=3100|10=033|8=FIX.4.4|9=132|35=AE|34=130|49=INITIATOR|52=20260317-20:15:44.626|56=ACCEPTOR|31=194.5|32=500|54=1|55=AMZN|60=20260317-20:15:44|487=0|571=55a1d5ef|10=169|8=FIX.4.4|9=148|35=S|34=131|49=INITIATOR|52=20260317-20:15:44.626|56=ACCEPTOR|55=TSLA|60=20260317-20:15:44|117=5c657774|132=174.4243|133=174.5115|134=3100|135=1800|10=064|8=FIX.4.4|9=135|35=AE|34=132|49=INITIATOR|52=20260317-20:15:44.626|56=ACCEPTOR|31=174.4797|32=400|54=2|55=TSLA|60=20260317-20:15:44|487=0|571=a0456608|10=190|8=FIX.4.4|9=148|35=S|34=133|49=INITIATOR|52=20260317-20:15:49.581|56=ACCEPTOR|55=AAPL|60=20260317-20:15:49|117=b24c06b3|132=185.6559|133=185.7488|134=1800|135=3000|10=158|8=FIX.4.4|9=136|35=AE|34=134|49=INITIATOR|52=20260317-20:15:49.581|56=ACCEPTOR|31=185.6449|32=1500|54=2|55=AAPL|60=20260317-20:15:49|487=0|571=f403881e|10=026|8=FIX.4.4|9=148|35=S|34=135|49=INITIATOR|52=20260317-20:15:49.581|56=ACCEPTOR|55=MSFT|60=20260317-20:15:49|117=cdc88f24|132=414.2706|133=414.4778|134=2100|135=1500|10=228|8=FIX.4.4|9=136|35=AE|34=136|49=INITIATOR|52=20260317-20:15:49.581|56=ACCEPTOR|31=414.2031|32=2000|54=2|55=MSFT|60=20260317-20:15:49|487=0|571=ade24540|10=068|8=FIX.4.4|9=149|35=S|34=137|49=INITIATOR|52=20260317-20:15:49.582|56=ACCEPTOR|55=GOOGL|60=20260317-20:15:49|117=4e57c3b3|132=174.4079|133=174.4951|134=1500|135=4600|10=251|8=FIX.4.4|9=137|35=AE|34=138|49=INITIATOR|52=20260317-20:15:49.582|56=ACCEPTOR|31=174.4568|32=1200|54=2|55=GOOGL|60=20260317-20:15:49|487=0|571=830a751a|10=108|8=FIX.4.4|9=148|35=S|34=139|49=INITIATOR|52=20260317-20:15:49.582|56=ACCEPTOR|55=AMZN|60=20260317-20:15:49|117=0b4fb805|132=193.9979|133=194.0949|134=4400|135=1700|10=201|8=FIX.4.4|9=135|35=AE|34=140|49=INITIATOR|52=20260317-20:15:49.582|56=ACCEPTOR|31=193.9774|32=500|54=1|55=AMZN|60=20260317-20:15:49|487=0|571=b8a3d4aa|10=133|8=FIX.4.4|9=148|35=S|34=141|49=INITIATOR|52=20260317-20:15:49.582|56=ACCEPTOR|55=TSLA|60=20260317-20:15:49|117=74b2f0af|132=174.2864|133=174.3736|134=3500|135=3700|10=223|8=FIX.4.4|9=136|35=AE|34=142|49=INITIATOR|52=20260317-20:15:49.582|56=ACCEPTOR|31=174.2632|32=1600|54=2|55=TSLA|60=20260317-20:15:49|487=0|571=b7d023d4|10=076|8=FIX.4.4|9=148|35=S|34=143|49=INITIATOR|52=20260317-20:15:51.583|56=ACCEPTOR|55=AAPL|60=20260317-20:15:51|117=defea385|132=185.8933|133=185.9863|134=2400|135=2400|10=255|8=FIX.4.4|9=135|35=AE|34=144|49=INITIATOR|52=20260317-20:15:51.583|56=ACCEPTOR|31=185.9635|32=900|54=1|55=AAPL|60=20260317-20:15:51|487=0|571=c667d236|10=226|8=FIX.4.4|9=148|35=S|34=145|49=INITIATOR|52=20260317-20:15:51.583|56=ACCEPTOR|55=MSFT|60=20260317-20:15:51|117=a1074508|132=413.7285|133=413.9355|134=1700|135=1500|10=067|8=FIX.4.4|9=136|35=AE|34=146|49=INITIATOR|52=20260317-20:15:51.583|56=ACCEPTOR|31=413.7556|32=1900|54=2|55=MSFT|60=20260317-20:15:51|487=0|571=567ece26|10=095|8=FIX.4.4|9=149|35=S|34=147|49=INITIATOR|52=20260317-20:15:51.583|56=ACCEPTOR|55=GOOGL|60=20260317-20:15:51|117=f89ea9c0|132=174.4587|133=174.5461|134=1900|135=1700|10=043|8=FIX.4.4|9=137|35=AE|34=148|49=INITIATOR|52=20260317-20:15:51.584|56=ACCEPTOR|31=174.5166|32=2000|54=1|55=GOOGL|60=20260317-20:15:51|487=0|571=03496ff6|10=104|8=FIX.4.4|9=147|35=S|34=149|49=INITIATOR|52=20260317-20:15:51.584|56=ACCEPTOR|55=AMZN|60=20260317-20:15:51|117=f0a44e48|132=194.1798|133=194.2769|134=1600|135=500|10=136|8=FIX.4.4|9=136|35=AE|34=150|49=INITIATOR|52=20260317-20:15:51.584|56=ACCEPTOR|31=194.2726|32=1300|54=2|55=AMZN|60=20260317-20:15:51|487=0|571=50522f44|10=230|8=FIX.4.4|9=148|35=S|34=151|49=INITIATOR|52=20260317-20:15:51.584|56=ACCEPTOR|55=TSLA|60=20260317-20:15:51|117=e84f30cd|132=174.6153|133=174.7027|134=3100|135=3100|10=199|8=FIX.4.4|9=136|35=AE|34=152|49=INITIATOR|52=20260317-20:15:51.584|56=ACCEPTOR|31=174.6169|32=1300|54=2|55=TSLA|60=20260317-20:15:51|487=0|571=1b556b54|10=027|8=FIX.4.4|9=147|35=S|34=153|49=INITIATOR|52=20260317-20:15:53.584|56=ACCEPTOR|55=AAPL|60=20260317-20:15:53|117=93a772eb|132=185.7177|133=185.8106|134=2100|135=600|10=100|8=FIX.4.4|9=136|35=AE|34=154|49=INITIATOR|52=20260317-20:15:53.585|56=ACCEPTOR|31=185.7231|32=1000|54=2|55=AAPL|60=20260317-20:15:53|487=0|571=d2b5f41a|10=093|8=FIX.4.4|9=147|35=S|34=155|49=INITIATOR|52=20260317-20:15:53.585|56=ACCEPTOR|55=MSFT|60=20260317-20:15:53|117=ccfe354b|132=414.2566|133=414.4638|134=4800|135=900|10=227|8=FIX.4.4|9=136|35=AE|34=156|49=INITIATOR|52=20260317-20:15:53.585|56=ACCEPTOR|31=414.3358|32=1800|54=2|55=MSFT|60=20260317-20:15:53|487=0|571=03890b00|10=241|8=FIX.4.4|9=147|35=S|34=157|49=INITIATOR|52=20260317-20:15:53.585|56=ACCEPTOR|55=GOOGL|60=20260317-20:15:53|117=1c5db522|132=174.6497|133=174.7371|134=100|135=900|10=139|8=FIX.4.4|9=136|35=AE|34=158|49=INITIATOR|52=20260317-20:15:53.586|56=ACCEPTOR|31=174.7103|32=800|54=2|55=GOOGL|60=20260317-20:15:53|487=0|571=55bb469f|10=109|8=FIX.4.4|9=148|35=S|34=159|49=INITIATOR|52=20260317-20:15:53.586|56=ACCEPTOR|55=AMZN|60=20260317-20:15:53|117=ae1fd48c|132=194.3236|133=194.4208|134=4700|135=4200|10=016|8=FIX.4.4|9=135|35=AE|34=160|49=INITIATOR|52=20260317-20:15:53.586|56=ACCEPTOR|31=194.2847|32=500|54=1|55=AMZN|60=20260317-20:15:53|487=0|571=f3074450|10=193|8=FIX.4.4|9=146|35=S|34=161|49=INITIATOR|52=20260317-20:15:53.586|56=ACCEPTOR|55=TSLA|60=20260317-20:15:53|117=5aa49ecb|132=174.5936|133=174.681|134=500|135=4300|10=164|8=FIX.4.4|9=135|35=AE|34=162|49=INITIATOR|52=20260317-20:15:53.586|56=ACCEPTOR|31=174.5926|32=900|54=1|55=TSLA|60=20260317-20:15:53|487=0|571=04443a93|10=195|8=FIX.4.4|9=145|35=S|34=163|49=INITIATOR|52=20260317-20:15:55.586|56=ACCEPTOR|55=AAPL|60=20260317-20:15:55|117=3437f65d|132=186.05|133=186.143|134=2500|135=3200|10=200|8=FIX.4.4|9=136|35=AE|34=164|49=INITIATOR|52=20260317-20:15:55.587|56=ACCEPTOR|31=186.1013|32=1400|54=2|55=AAPL|60=20260317-20:15:55|487=0|571=17dd2b08|10=052|8=FIX.4.4|9=147|35=S|34=165|49=INITIATOR|52=20260317-20:15:55.587|56=ACCEPTOR|55=MSFT|60=20260317-20:15:55|117=d16bbbe8|132=414.3247|133=414.5319|134=400|135=4900|10=223|8=FIX.4.4|9=135|35=AE|34=166|49=INITIATOR|52=20260317-20:15:55.587|56=ACCEPTOR|31=414.2342|32=600|54=1|55=MSFT|60=20260317-20:15:55|487=0|571=288f058e|10=255|8=FIX.4.4|9=148|35=S|34=167|49=INITIATOR|52=20260317-20:15:55.587|56=ACCEPTOR|55=GOOGL|60=20260317-20:15:55|117=0319b254|132=174.3548|133=174.442|134=2300|135=3900|10=094|8=FIX.4.4|9=135|35=AE|34=168|49=INITIATOR|52=20260317-20:15:55.587|56=ACCEPTOR|31=174.387|32=200|54=2|55=GOOGL|60=20260317-20:15:55|487=0|571=1cf6171a|10=054|8=FIX.4.4|9=146|35=S|34=169|49=INITIATOR|52=20260317-20:15:55.587|56=ACCEPTOR|55=AMZN|60=20260317-20:15:55|117=b26da080|132=193.9802|133=194.0772|134=300|135=100|10=068|8=FIX.4.4|9=135|35=AE|34=170|49=INITIATOR|52=20260317-20:15:55.587|56=ACCEPTOR|31=193.9589|32=400|54=1|55=AMZN|60=20260317-20:15:55|487=0|571=89aa85c3|10=056|8=FIX.4.4|9=147|35=S|34=171|49=INITIATOR|52=20260317-20:15:55.587|56=ACCEPTOR|55=TSLA|60=20260317-20:15:55|117=ff6b6c53|132=174.4449|133=174.5321|134=4800|135=300|10=175|8=FIX.4.4|9=135|35=AE|34=172|49=INITIATOR|52=20260317-20:15:55.588|56=ACCEPTOR|31=174.4253|32=200|54=1|55=TSLA|60=20260317-20:15:55|487=0|571=2327653c|10=190|8=FIX.4.4|9=148|35=S|34=173|49=INITIATOR|52=20260317-20:15:57.588|56=ACCEPTOR|55=AAPL|60=20260317-20:15:57|117=933b8f75|132=186.0255|133=186.1185|134=3300|135=4100|10=116|8=FIX.4.4|9=136|35=AE|34=174|49=INITIATOR|52=20260317-20:15:57.588|56=ACCEPTOR|31=186.0005|32=1900|54=2|55=AAPL|60=20260317-20:15:57|487=0|571=015366ce|10=016|8=FIX.4.4|9=148|35=S|34=175|49=INITIATOR|52=20260317-20:15:57.588|56=ACCEPTOR|55=MSFT|60=20260317-20:15:57|117=cd093e9b|132=413.8777|133=414.0847|134=1700|135=4400|10=247|8=FIX.4.4|9=135|35=AE|34=176|49=INITIATOR|52=20260317-20:15:57.589|56=ACCEPTOR|31=413.9225|32=300|54=1|55=MSFT|60=20260317-20:15:57|487=0|571=dedbf670|10=145|8=FIX.4.4|9=149|35=S|34=177|49=INITIATOR|52=20260317-20:15:57.589|56=ACCEPTOR|55=GOOGL|60=20260317-20:15:57|117=dc32c1c2|132=174.1512|133=174.2383|134=4100|135=2300|10=021|8=FIX.4.4|9=137|35=AE|34=178|49=INITIATOR|52=20260317-20:15:57.589|56=ACCEPTOR|31=174.1645|32=1300|54=2|55=GOOGL|60=20260317-20:15:57|487=0|571=2173ce20|10=108|8=FIX.4.4|9=147|35=S|34=179|49=INITIATOR|52=20260317-20:15:57.589|56=ACCEPTOR|55=AMZN|60=20260317-20:15:57|117=d89479ec|132=193.7523|133=193.8492|134=500|135=4700|10=166|8=FIX.4.4|9=135|35=AE|34=180|49=INITIATOR|52=20260317-20:15:57.589|56=ACCEPTOR|31=193.8251|32=200|54=1|55=AMZN|60=20260317-20:15:57|487=0|571=578dd685|10=007|8=FIX.4.4|9=146|35=S|34=181|49=INITIATOR|52=20260317-20:15:57.589|56=ACCEPTOR|55=TSLA|60=20260317-20:15:57|117=4e3d023c|132=174.184|133=174.2712|134=100|135=2800|10=061|8=FIX.4.4|9=136|35=AE|34=182|49=INITIATOR|52=20260317-20:15:57.590|56=ACCEPTOR|31=174.1687|32=1500|54=1|55=TSLA|60=20260317-20:15:57|487=0|571=fa929b3a|10=139|8=FIX.4.4|9=147|35=S|34=183|49=INITIATOR|52=20260317-20:15:59.590|56=ACCEPTOR|55=AAPL|60=20260317-20:15:59|117=8a04c340|132=186.2105|133=186.3036|134=600|135=4000|10=037|8=FIX.4.4|9=135|35=AE|34=184|49=INITIATOR|52=20260317-20:15:59.590|56=ACCEPTOR|31=186.3091|32=800|54=1|55=AAPL|60=20260317-20:15:59|487=0|571=50caaf3c|10=107|8=FIX.4.4|9=148|35=S|34=185|49=INITIATOR|52=20260317-20:15:59.590|56=ACCEPTOR|55=MSFT|60=20260317-20:15:59|117=bc7aba7b|132=413.9769|133=414.1839|134=1900|135=3100|10=077|8=FIX.4.4|9=134|35=AE|34=186|49=INITIATOR|52=20260317-20:15:59.590|56=ACCEPTOR|31=414.028|32=300|54=1|55=MSFT|60=20260317-20:15:59|487=0|571=ac473c5d|10=034|8=FIX.4.4|9=148|35=S|34=187|49=INITIATOR|52=20260317-20:15:59.591|56=ACCEPTOR|55=GOOGL|60=20260317-20:15:59|117=f7a3b085|132=174.425|133=174.5122|134=4800|135=1300|10=191|8=FIX.4.4|9=136|35=AE|34=188|49=INITIATOR|52=20260317-20:15:59.591|56=ACCEPTOR|31=174.4706|32=200|54=2|55=GOOGL|60=20260317-20:15:59|487=0|571=fe954560|10=073|8=FIX.4.4|9=148|35=S|34=189|49=INITIATOR|52=20260317-20:15:59.591|56=ACCEPTOR|55=AMZN|60=20260317-20:15:59|117=871f5a24|132=193.5869|133=193.6837|134=4000|135=2100|10=153|8=FIX.4.4|9=135|35=AE|34=190|49=INITIATOR|52=20260317-20:15:59.591|56=ACCEPTOR|31=193.7161|32=600|54=1|55=AMZN|60=20260317-20:15:59|487=0|571=2106a6c6|10=242|8=FIX.4.4|9=147|35=S|34=191|49=INITIATOR|52=20260317-20:15:59.591|56=ACCEPTOR|55=TSLA|60=20260317-20:15:59|117=ae449d4a|132=174.516|133=174.6034|134=3000|135=4400|10=164|8=FIX.4.4|9=135|35=AE|34=192|49=INITIATOR|52=20260317-20:15:59.591|56=ACCEPTOR|31=174.5493|32=600|54=1|55=TSLA|60=20260317-20:15:59|487=0|571=d1a49aeb|10=137|8=FIX.4.4|9=148|35=S|34=193|49=INITIATOR|52=20260317-20:16:01.591|56=ACCEPTOR|55=AAPL|60=20260317-20:16:01|117=ee4237cf|132=186.5524|133=186.6457|134=3300|135=3700|10=196|8=FIX.4.4|9=136|35=AE|34=194|49=INITIATOR|52=20260317-20:16:01.592|56=ACCEPTOR|31=186.6454|32=1700|54=2|55=AAPL|60=20260317-20:16:01|487=0|571=abb2cbdd|10=236|8=FIX.4.4|9=148|35=S|34=195|49=INITIATOR|52=20260317-20:16:01.592|56=ACCEPTOR|55=MSFT|60=20260317-20:16:01|117=2291b023|132=414.5368|133=414.7441|134=2900|135=3600|10=061|8=FIX.4.4|9=135|35=AE|34=196|49=INITIATOR|52=20260317-20:16:01.592|56=ACCEPTOR|31=414.4953|32=300|54=1|55=MSFT|60=20260317-20:16:01|487=0|571=831ce670|10=236|8=FIX.4.4|9=149|35=S|34=197|49=INITIATOR|52=20260317-20:16:01.592|56=ACCEPTOR|55=GOOGL|60=20260317-20:16:01|117=f08223e7|132=174.4615|133=174.5489|134=1300|135=1500|10=186|8=FIX.4.4|9=137|35=AE|34=198|49=INITIATOR|52=20260317-20:16:01.592|56=ACCEPTOR|31=174.4564|32=1100|54=1|55=GOOGL|60=20260317-20:16:01|487=0|571=db6cfff2|10=032|8=FIX.4.4|9=148|35=S|34=199|49=INITIATOR|52=20260317-20:16:01.592|56=ACCEPTOR|55=AMZN|60=20260317-20:16:01|117=9cea1ee6|132=193.6384|133=193.7352|134=2800|135=3500|10=017|8=FIX.4.4|9=135|35=AE|34=200|49=INITIATOR|52=20260317-20:16:01.593|56=ACCEPTOR|31=193.6809|32=900|54=1|55=AMZN|60=20260317-20:16:01|487=0|571=2afc3a53|10=062|8=FIX.4.4|9=148|35=S|34=201|49=INITIATOR|52=20260317-20:16:01.593|56=ACCEPTOR|55=TSLA|60=20260317-20:16:01|117=f23595e3|132=174.1695|133=174.2567|134=1100|135=1200|10=103|8=FIX.4.4|9=135|35=AE|34=202|49=INITIATOR|52=20260317-20:16:01.593|56=ACCEPTOR|31=174.2459|32=400|54=2|55=TSLA|60=20260317-20:16:01|487=0|571=9a62f0d1|10=011|8=FIX.4.4|9=71|35=1|34=203|49=INITIATOR|52=20260317-20:16:02.872|56=ACCEPTOR|112=TEST|10=080|8=FIX.4.4|9=148|35=S|34=204|49=INITIATOR|52=20260317-20:16:03.593|56=ACCEPTOR|55=AAPL|60=20260317-20:16:03|117=9845caa0|132=186.1853|133=186.2784|134=3800|135=3000|10=141|8=FIX.4.4|9=135|35=AE|34=205|49=INITIATOR|52=20260317-20:16:03.593|56=ACCEPTOR|31=186.2359|32=400|54=1|55=AAPL|60=20260317-20:16:03|487=0|571=4ba4a26c|10=039|8=FIX.4.4|9=148|35=S|34=206|49=INITIATOR|52=20260317-20:16:03.594|56=ACCEPTOR|55=MSFT|60=20260317-20:16:03|117=7dd591b3|132=414.3343|133=414.5415|134=3100|135=1200|10=147|8=FIX.4.4|9=136|35=AE|34=207|49=INITIATOR|52=20260317-20:16:03.594|56=ACCEPTOR|31=414.5346|32=1600|54=1|55=MSFT|60=20260317-20:16:03|487=0|571=20cfb0d9|10=118|8=FIX.4.4|9=149|35=S|34=208|49=INITIATOR|52=20260317-20:16:03.594|56=ACCEPTOR|55=GOOGL|60=20260317-20:16:03|117=95551fe6|132=174.7753|133=174.8627|134=3200|135=1300|10=196|8=FIX.4.4|9=136|35=AE|34=209|49=INITIATOR|52=20260317-20:16:03.594|56=ACCEPTOR|31=174.7399|32=400|54=1|55=GOOGL|60=20260317-20:16:03|487=0|571=b7316135|10=002|8=FIX.4.4|9=148|35=S|34=210|49=INITIATOR|52=20260317-20:16:03.594|56=ACCEPTOR|55=AMZN|60=20260317-20:16:03|117=5f1828f9|132=193.3105|133=193.4072|134=3600|135=2900|10=115|8=FIX.4.4|9=135|35=AE|34=211|49=INITIATOR|52=20260317-20:16:03.594|56=ACCEPTOR|31=193.396|32=1400|54=2|55=AMZN|60=20260317-20:16:03|487=0|571=5318d7b1|10=228|8=FIX.4.4|9=148|35=S|34=212|49=INITIATOR|52=20260317-20:16:03.595|56=ACCEPTOR|55=TSLA|60=20260317-20:16:03|117=ccd69042|132=173.9195|133=174.0065|134=1500|135=1300|10=150|8=FIX.4.4|9=135|35=AE|34=213|49=INITIATOR|52=20260317-20:16:03.595|56=ACCEPTOR|31=173.886|32=1900|54=2|55=TSLA|60=20260317-20:16:03|487=0|571=cf626756|10=246|8=FIX.4.4|9=148|35=S|34=214|49=INITIATOR|52=20260317-20:16:05.595|56=ACCEPTOR|55=AAPL|60=20260317-20:16:05|117=23873185|132=185.8375|133=185.9304|134=4500|135=4700|10=015|8=FIX.4.4|9=136|35=AE|34=215|49=INITIATOR|52=20260317-20:16:05.595|56=ACCEPTOR|31=185.8333|32=1100|54=1|55=AAPL|60=20260317-20:16:05|487=0|571=b3761903|10=210|8=FIX.4.4|9=147|35=S|34=216|49=INITIATOR|52=20260317-20:16:05.595|56=ACCEPTOR|55=MSFT|60=20260317-20:16:05|117=0e112ae8|132=414.6739|133=414.8813|134=900|135=3100|10=115|8=FIX.4.4|9=135|35=AE|34=217|49=INITIATOR|52=20260317-20:16:05.596|56=ACCEPTOR|31=414.7438|32=500|54=2|55=MSFT|60=20260317-20:16:05|487=0|571=ba1ac6df|10=173|8=FIX.4.4|9=148|35=S|34=218|49=INITIATOR|52=20260317-20:16:05.596|56=ACCEPTOR|55=GOOGL|60=20260317-20:16:05|117=f10e1541|132=174.5181|133=174.6055|134=600|135=1000|10=119|8=FIX.4.4|9=137|35=AE|34=219|49=INITIATOR|52=20260317-20:16:05.596|56=ACCEPTOR|31=174.6487|32=1400|54=2|55=GOOGL|60=20260317-20:16:05|487=0|571=9406eb84|10=115|8=FIX.4.4|9=148|35=S|34=220|49=INITIATOR|52=20260317-20:16:05.596|56=ACCEPTOR|55=AMZN|60=20260317-20:16:05|117=7406c67b|132=192.9728|133=193.0693|134=3100|135=4300|10=124|8=FIX.4.4|9=135|35=AE|34=221|49=INITIATOR|52=20260317-20:16:05.596|56=ACCEPTOR|31=193.0169|32=400|54=1|55=AMZN|60=20260317-20:16:05|487=0|571=eb9f82e3|10=080|8=FIX.4.4|9=148|35=S|34=222|49=INITIATOR|52=20260317-20:16:05.597|56=ACCEPTOR|55=TSLA|60=20260317-20:16:05|117=3fa4eeb0|132=173.9932|133=174.0802|134=3700|135=4300|10=253|8=FIX.4.4|9=136|35=AE|34=223|49=INITIATOR|52=20260317-20:16:05.597|56=ACCEPTOR|31=174.0572|32=1100|54=2|55=TSLA|60=20260317-20:16:05|487=0|571=daa2d6ad|10=205|8=FIX.4.4|9=148|35=S|34=224|49=INITIATOR|52=20260317-20:16:07.597|56=ACCEPTOR|55=AAPL|60=20260317-20:16:07|117=05ddc526|132=186.1516|133=186.2447|134=4200|135=2000|10=139|8=FIX.4.4|9=136|35=AE|34=225|49=INITIATOR|52=20260317-20:16:07.597|56=ACCEPTOR|31=186.1201|32=1900|54=1|55=AAPL|60=20260317-20:16:07|487=0|571=ee031225|10=253|8=FIX.4.4|9=148|35=S|34=226|49=INITIATOR|52=20260317-20:16:07.597|56=ACCEPTOR|55=MSFT|60=20260317-20:16:07|117=acae10a7|132=415.0487|133=415.2563|134=3000|135=2600|10=253|8=FIX.4.4|9=135|35=AE|34=227|49=INITIATOR|52=20260317-20:16:07.598|56=ACCEPTOR|31=414.9967|32=500|54=1|55=MSFT|60=20260317-20:16:07|487=0|571=45a0dd60|10=044|8=FIX.4.4|9=149|35=S|34=228|49=INITIATOR|52=20260317-20:16:07.598|56=ACCEPTOR|55=GOOGL|60=20260317-20:16:07|117=1a74a390|132=174.8473|133=174.9347|134=2500|135=1600|10=199|8=FIX.4.4|9=137|35=AE|34=229|49=INITIATOR|52=20260317-20:16:07.598|56=ACCEPTOR|31=174.9701|32=1500|54=2|55=GOOGL|60=20260317-20:16:07|487=0|571=82b56bb5|10=157|8=FIX.4.4|9=147|35=S|34=230|49=INITIATOR|52=20260317-20:16:07.598|56=ACCEPTOR|55=AMZN|60=20260317-20:16:07|117=87374ee9|132=192.6256|133=192.7218|134=4300|135=300|10=086|8=FIX.4.4|9=136|35=AE|34=231|49=INITIATOR|52=20260317-20:16:07.598|56=ACCEPTOR|31=192.5921|32=1700|54=1|55=AMZN|60=20260317-20:16:07|487=0|571=d042ff53|10=082|8=FIX.4.4|9=148|35=S|34=232|49=INITIATOR|52=20260317-20:16:07.598|56=ACCEPTOR|55=TSLA|60=20260317-20:16:07|117=f613594b|132=174.0925|133=174.1797|134=2500|135=3700|10=133|8=FIX.4.4|9=135|35=AE|34=233|49=INITIATOR|52=20260317-20:16:07.598|56=ACCEPTOR|31=174.0792|32=300|54=2|55=TSLA|60=20260317-20:16:07|487=0|571=963f11b5|10=241|8=FIX.4.4|9=148|35=S|34=234|49=INITIATOR|52=20260317-20:16:09.599|56=ACCEPTOR|55=AAPL|60=20260317-20:16:09|117=b3dfa269|132=185.8731|133=185.9661|134=1800|135=2600|10=216|8=FIX.4.4|9=136|35=AE|34=235|49=INITIATOR|52=20260317-20:16:09.599|56=ACCEPTOR|31=185.8953|32=1200|54=2|55=AAPL|60=20260317-20:16:09|487=0|571=7eacf743|10=127|8=FIX.4.4|9=148|35=S|34=236|49=INITIATOR|52=20260317-20:16:09.599|56=ACCEPTOR|55=MSFT|60=20260317-20:16:09|117=2e3cef9e|132=414.2422|133=414.4494|134=1200|135=3700|10=019|8=FIX.4.4|9=135|35=AE|34=237|49=INITIATOR|52=20260317-20:16:09.599|56=ACCEPTOR|31=414.4956|32=600|54=1|55=MSFT|60=20260317-20:16:09|487=0|571=6f6a6c35|10=056|8=FIX.4.4|9=148|35=S|34=238|49=INITIATOR|52=20260317-20:16:09.599|56=ACCEPTOR|55=GOOGL|60=20260317-20:16:09|117=2b4f3bc0|132=174.7931|133=174.8805|134=900|135=3800|10=250|8=FIX.4.4|9=137|35=AE|34=239|49=INITIATOR|52=20260317-20:16:09.600|56=ACCEPTOR|31=174.8228|32=1300|54=2|55=GOOGL|60=20260317-20:16:09|487=0|571=d16a5647|10=101|8=FIX.4.4|9=147|35=S|34=240|49=INITIATOR|52=20260317-20:16:09.600|56=ACCEPTOR|55=AMZN|60=20260317-20:16:09|117=ba22ece5|132=192.6739|133=192.7703|134=600|135=2300|10=202|8=FIX.4.4|9=135|35=AE|34=241|49=INITIATOR|52=20260317-20:16:09.600|56=ACCEPTOR|31=192.7447|32=600|54=1|55=AMZN|60=20260317-20:16:09|487=0|571=d6ee1e0f|10=123|8=FIX.4.4|9=148|35=S|34=242|49=INITIATOR|52=20260317-20:16:09.600|56=ACCEPTOR|55=TSLA|60=20260317-20:16:09|117=07184d2e|132=173.9345|133=174.0215|134=3200|135=1300|10=097|8=FIX.4.4|9=135|35=AE|34=243|49=INITIATOR|52=20260317-20:16:09.600|56=ACCEPTOR|31=173.9545|32=300|54=1|55=TSLA|60=20260317-20:16:09|487=0|571=15e79dec|10=079|8=FIX.4.4|9=147|35=S|34=244|49=INITIATOR|52=20260317-20:16:11.600|56=ACCEPTOR|55=AAPL|60=20260317-20:16:11|117=7cae3526|132=186.0815|133=186.1746|134=4700|135=700|10=082|8=FIX.4.4|9=136|35=AE|34=245|49=INITIATOR|52=20260317-20:16:11.601|56=ACCEPTOR|31=186.1653|32=1300|54=1|55=AAPL|60=20260317-20:16:11|487=0|571=af50a2c5|10=076|8=FIX.4.4|9=147|35=S|34=246|49=INITIATOR|52=20260317-20:16:11.601|56=ACCEPTOR|55=MSFT|60=20260317-20:16:11|117=0b189120|132=413.7491|133=413.956|134=3800|135=3700|10=006|8=FIX.4.4|9=134|35=AE|34=247|49=INITIATOR|52=20260317-20:16:11.601|56=ACCEPTOR|31=413.922|32=400|54=1|55=MSFT|60=20260317-20:16:11|487=0|571=23fd2dc0|10=000|8=FIX.4.4|9=149|35=S|34=248|49=INITIATOR|52=20260317-20:16:11.601|56=ACCEPTOR|55=GOOGL|60=20260317-20:16:11|117=3d966b7c|132=174.8534|133=174.9408|134=1500|135=3700|10=236|8=FIX.4.4|9=136|35=AE|34=249|49=INITIATOR|52=20260317-20:16:11.602|56=ACCEPTOR|31=174.9028|32=300|54=2|55=GOOGL|60=20260317-20:16:11|487=0|571=cddf36d2|10=181|8=FIX.4.4|9=147|35=S|34=250|49=INITIATOR|52=20260317-20:16:11.602|56=ACCEPTOR|55=AMZN|60=20260317-20:16:11|117=7368aca0|132=192.9346|133=193.031|134=2400|135=4100|10=084|8=FIX.4.4|9=135|35=AE|34=251|49=INITIATOR|52=20260317-20:16:11.602|56=ACCEPTOR|31=192.9008|32=200|54=2|55=AMZN|60=20260317-20:16:11|487=0|571=c2fa3915|10=006|8=FIX.4.4|9=148|35=S|34=252|49=INITIATOR|52=20260317-20:16:11.602|56=ACCEPTOR|55=TSLA|60=20260317-20:16:11|117=0d407175|132=174.0975|133=174.1847|134=4000|135=3900|10=055|8=FIX.4.4|9=135|35=AE|34=253|49=INITIATOR|52=20260317-20:16:11.602|56=ACCEPTOR|31=174.0651|32=300|54=2|55=TSLA|60=20260317-20:16:11|487=0|571=5f52e31d|10=003|8=FIX.4.4|9=148|35=S|34=254|49=INITIATOR|52=20260317-20:16:13.602|56=ACCEPTOR|55=AAPL|60=20260317-20:16:13|117=69413617|132=186.0755|133=186.1686|134=3300|135=3400|10=000|8=FIX.4.4|9=135|35=AE|34=255|49=INITIATOR|52=20260317-20:16:13.603|56=ACCEPTOR|31=186.0781|32=100|54=1|55=AAPL|60=20260317-20:16:13|487=0|571=251effbd|10=088|8=FIX.4.4|9=147|35=S|34=256|49=INITIATOR|52=20260317-20:16:13.603|56=ACCEPTOR|55=MSFT|60=20260317-20:16:13|117=7ad74f02|132=414.0652|133=414.2722|134=800|135=3300|10=097|8=FIX.4.4|9=135|35=AE|34=257|49=INITIATOR|52=20260317-20:16:13.603|56=ACCEPTOR|31=414.3726|32=900|54=2|55=MSFT|60=20260317-20:16:13|487=0|571=031cd92a|10=019|8=FIX.4.4|9=149|35=S|34=258|49=INITIATOR|52=20260317-20:16:13.603|56=ACCEPTOR|55=GOOGL|60=20260317-20:16:13|117=d396d2bc|132=174.7734|133=174.8608|134=1200|135=2300|10=022|8=FIX.4.4|9=136|35=AE|34=259|49=INITIATOR|52=20260317-20:16:13.603|56=ACCEPTOR|31=174.8042|32=100|54=1|55=GOOGL|60=20260317-20:16:13|487=0|571=47fcd312|10=081|8=FIX.4.4|9=147|35=S|34=260|49=INITIATOR|52=20260317-20:16:13.603|56=ACCEPTOR|55=AMZN|60=20260317-20:16:13|117=756e7d04|132=192.7226|133=192.819|134=2800|135=1100|10=060|8=FIX.4.4|9=136|35=AE|34=261|49=INITIATOR|52=20260317-20:16:13.603|56=ACCEPTOR|31=192.8132|32=1000|54=1|55=AMZN|60=20260317-20:16:13|487=0|571=f76b71d0|10=059|8=FIX.4.4|9=147|35=S|34=262|49=INITIATOR|52=20260317-20:16:13.604|56=ACCEPTOR|55=TSLA|60=20260317-20:16:13|117=893a15b9|132=173.8772|133=173.9642|134=500|135=3100|10=066|8=FIX.4.4|9=135|35=AE|34=263|49=INITIATOR|52=20260317-20:16:13.604|56=ACCEPTOR|31=174.0031|32=800|54=2|55=TSLA|60=20260317-20:16:13|487=0|571=89070902|10=123|8=FIX.4.4|9=148|35=S|34=264|49=INITIATOR|52=20260317-20:16:15.604|56=ACCEPTOR|55=AAPL|60=20260317-20:16:15|117=734389b1|132=186.2825|133=186.3757|134=1000|135=4100|10=049|8=FIX.4.4|9=136|35=AE|34=265|49=INITIATOR|52=20260317-20:16:15.604|56=ACCEPTOR|31=186.3428|32=1600|54=2|55=AAPL|60=20260317-20:16:15|487=0|571=c0560a3e|10=047|8=FIX.4.4|9=148|35=S|34=266|49=INITIATOR|52=20260317-20:16:15.605|56=ACCEPTOR|55=MSFT|60=20260317-20:16:15|117=02488e17|132=413.9752|133=414.1822|134=4600|135=2200|10=070|8=FIX.4.4|9=134|35=AE|34=267|49=INITIATOR|52=20260317-20:16:15.605|56=ACCEPTOR|31=413.993|32=400|54=1|55=MSFT|60=20260317-20:16:15|487=0|571=e03a9938|10=196|8=FIX.4.4|9=149|35=S|34=268|49=INITIATOR|52=20260317-20:16:15.605|56=ACCEPTOR|55=GOOGL|60=20260317-20:16:15|117=4c7a569e|132=174.4719|133=174.5593|134=3200|135=2200|10=245|8=FIX.4.4|9=136|35=AE|34=269|49=INITIATOR|52=20260317-20:16:15.605|56=ACCEPTOR|31=174.5209|32=200|54=2|55=GOOGL|60=20260317-20:16:15|487=0|571=102b4f53|10=037|8=FIX.4.4|9=148|35=S|34=270|49=INITIATOR|52=20260317-20:16:15.605|56=ACCEPTOR|55=AMZN|60=20260317-20:16:15|117=17ba9b9a|132=193.0152|133=193.1116|134=1700|135=4600|10=196|8=FIX.4.4|9=135|35=AE|34=271|49=INITIATOR|52=20260317-20:16:15.606|56=ACCEPTOR|31=192.9678|32=500|54=2|55=AMZN|60=20260317-20:16:15|487=0|571=dff00cf4|10=131|8=FIX.4.4|9=147|35=S|34=272|49=INITIATOR|52=20260317-20:16:15.606|56=ACCEPTOR|55=TSLA|60=20260317-20:16:15|117=ad178da2|132=174.221|133=174.3082|134=1000|135=3500|10=134|8=FIX.4.4|9=135|35=AE|34=273|49=INITIATOR|52=20260317-20:16:15.606|56=ACCEPTOR|31=174.1948|32=200|54=2|55=TSLA|60=20260317-20:16:15|487=0|571=51e8bcea|10=121|8=FIX.4.4|9=147|35=S|34=274|49=INITIATOR|52=20260317-20:16:17.606|56=ACCEPTOR|55=AAPL|60=20260317-20:16:17|117=d78a04b0|132=186.4055|133=186.4987|134=3600|135=100|10=099|8=FIX.4.4|9=136|35=AE|34=275|49=INITIATOR|52=20260317-20:16:17.607|56=ACCEPTOR|31=186.3835|32=1400|54=2|55=AAPL|60=20260317-20:16:17|487=0|571=f51adb04|10=103|8=FIX.4.4|9=148|35=S|34=276|49=INITIATOR|52=20260317-20:16:17.607|56=ACCEPTOR|55=MSFT|60=20260317-20:16:17|117=4f113a73|132=413.9678|133=414.1748|134=2700|135=1100|10=127|8=FIX.4.4|9=136|35=AE|34=277|49=INITIATOR|52=20260317-20:16:17.607|56=ACCEPTOR|31=414.0681|32=1900|54=1|55=MSFT|60=20260317-20:16:17|487=0|571=a41c8c8c|10=135|8=FIX.4.4|9=148|35=S|34=278|49=INITIATOR|52=20260317-20:16:17.607|56=ACCEPTOR|55=GOOGL|60=20260317-20:16:17|117=f8892239|132=174.4158|133=174.503|134=2800|135=1500|10=104|8=FIX.4.4|9=137|35=AE|34=279|49=INITIATOR|52=20260317-20:16:17.607|56=ACCEPTOR|31=174.4706|32=1800|54=1|55=GOOGL|60=20260317-20:16:17|487=0|571=0ba30bf6|10=193|8=FIX.4.4|9=147|35=S|34=280|49=INITIATOR|52=20260317-20:16:17.607|56=ACCEPTOR|55=AMZN|60=20260317-20:16:17|117=27c3c56f|132=193.0914|133=193.188|134=2800|135=1500|10=121|8=FIX.4.4|9=136|35=AE|34=281|49=INITIATOR|52=20260317-20:16:17.607|56=ACCEPTOR|31=193.1099|32=1000|54=2|55=AMZN|60=20260317-20:16:17|487=0|571=eae30fea|10=217|8=FIX.4.4|9=148|35=S|34=282|49=INITIATOR|52=20260317-20:16:17.608|56=ACCEPTOR|55=TSLA|60=20260317-20:16:17|117=218ffff3|132=174.3452|133=174.4324|134=1800|135=1200|10=212|8=FIX.4.4|9=136|35=AE|34=283|49=INITIATOR|52=20260317-20:16:17.608|56=ACCEPTOR|31=174.3364|32=1000|54=2|55=TSLA|60=20260317-20:16:17|487=0|571=1854583f|10=244|8=FIX.4.4|9=148|35=S|34=284|49=INITIATOR|52=20260317-20:16:19.608|56=ACCEPTOR|55=AAPL|60=20260317-20:16:19|117=3d369fc8|132=186.5894|133=186.6827|134=3900|135=3500|10=188|8=FIX.4.4|9=136|35=AE|34=285|49=INITIATOR|52=20260317-20:16:19.608|56=ACCEPTOR|31=186.7039|32=1500|54=2|55=AAPL|60=20260317-20:16:19|487=0|571=317b3359|10=232|8=FIX.4.4|9=148|35=S|34=286|49=INITIATOR|52=20260317-20:16:19.608|56=ACCEPTOR|55=MSFT|60=20260317-20:16:19|117=332b18c6|132=414.5848|133=414.7921|134=2700|135=4700|10=139|8=FIX.4.4|9=136|35=AE|34=287|49=INITIATOR|52=20260317-20:16:19.609|56=ACCEPTOR|31=414.6094|32=1400|54=2|55=MSFT|60=20260317-20:16:19|487=0|571=1fe60808|10=049|8=FIX.4.4|9=149|35=S|34=288|49=INITIATOR|52=20260317-20:16:19.609|56=ACCEPTOR|55=GOOGL|60=20260317-20:16:19|117=6de22c99|132=174.5874|133=174.6748|134=1900|135=3200|10=015|8=FIX.4.4|9=137|35=AE|34=289|49=INITIATOR|52=20260317-20:16:19.609|56=ACCEPTOR|31=174.6351|32=1800|54=1|55=GOOGL|60=20260317-20:16:19|487=0|571=56cd495b|10=168|8=FIX.4.4|9=147|35=S|34=290|49=INITIATOR|52=20260317-20:16:19.609|56=ACCEPTOR|55=AMZN|60=20260317-20:16:19|117=49db02d4|132=193.2829|133=193.3796|134=3700|135=600|10=137|8=FIX.4.4|9=136|35=AE|34=291|49=INITIATOR|52=20260317-20:16:19.609|56=ACCEPTOR|31=193.4129|32=1100|54=2|55=AMZN|60=20260317-20:16:19|487=0|571=550a94df|10=086|8=FIX.4.4|9=147|35=S|34=292|49=INITIATOR|52=20260317-20:16:19.609|56=ACCEPTOR|55=TSLA|60=20260317-20:16:19|117=594fd2b1|132=174.3697|133=174.4569|134=4500|135=500|10=140|8=FIX.4.4|9=136|35=AE|34=293|49=INITIATOR|52=20260317-20:16:19.609|56=ACCEPTOR|31=174.3991|32=1900|54=2|55=TSLA|60=20260317-20:16:19|487=0|571=108bfac8|10=142|8=FIX.4.4|9=147|35=S|34=294|49=INITIATOR|52=20260317-20:16:24.525|56=ACCEPTOR|55=AAPL|60=20260317-20:16:24|117=a6bbac36|132=186.6372|133=186.7305|134=3400|135=600|10=185|8=FIX.4.4|9=136|35=AE|34=295|49=INITIATOR|52=20260317-20:16:24.526|56=ACCEPTOR|31=186.7603|32=1000|54=2|55=AAPL|60=20260317-20:16:24|487=0|571=507ddf0d|10=101|8=FIX.4.4|9=148|35=S|34=296|49=INITIATOR|52=20260317-20:16:24.526|56=ACCEPTOR|55=MSFT|60=20260317-20:16:24|117=55de7984|132=414.9234|133=415.1309|134=2300|135=1000|10=124|8=FIX.4.4|9=136|35=AE|34=297|49=INITIATOR|52=20260317-20:16:24.526|56=ACCEPTOR|31=415.0761|32=1200|54=2|55=MSFT|60=20260317-20:16:24|487=0|571=65442730|10=191|8=FIX.4.4|9=148|35=S|34=298|49=INITIATOR|52=20260317-20:16:24.526|56=ACCEPTOR|55=GOOGL|60=20260317-20:16:24|117=a465ba8a|132=174.869|133=174.9564|134=4200|135=2600|10=246|8=FIX.4.4|9=137|35=AE|34=299|49=INITIATOR|52=20260317-20:16:24.526|56=ACCEPTOR|31=174.8676|32=1800|54=2|55=GOOGL|60=20260317-20:16:24|487=0|571=c38f7285|10=128|8=FIX.4.4|9=148|35=S|34=300|49=INITIATOR|52=20260317-20:16:24.526|56=ACCEPTOR|55=AMZN|60=20260317-20:16:24|117=f4365c5d|132=193.0643|133=193.1609|134=4400|135=4700|10=161|8=FIX.4.4|9=136|35=AE|34=301|49=INITIATOR|52=20260317-20:16:24.527|56=ACCEPTOR|31=193.1592|32=2000|54=1|55=AMZN|60=20260317-20:16:24|487=0|571=b4ceb258|10=114|8=FIX.4.4|9=147|35=S|34=302|49=INITIATOR|52=20260317-20:16:24.527|56=ACCEPTOR|55=TSLA|60=20260317-20:16:24|117=50a7d7c1|132=174.3885|133=174.4757|134=900|135=3200|10=116|8=FIX.4.4|9=135|35=AE|34=303|49=INITIATOR|52=20260317-20:16:24.527|56=ACCEPTOR|31=174.4812|32=400|54=1|55=TSLA|60=20260317-20:16:24|487=0|571=47174830|10=131|8=FIX.4.4|9=146|35=S|34=304|49=INITIATOR|52=20260317-20:16:26.527|56=ACCEPTOR|55=AAPL|60=20260317-20:16:26|117=be2ba725|132=186.37|133=186.4632|134=2300|135=2400|10=078|8=FIX.4.4|9=135|35=AE|34=305|49=INITIATOR|52=20260317-20:16:26.528|56=ACCEPTOR|31=186.4859|32=600|54=2|55=AAPL|60=20260317-20:16:26|487=0|571=521d7304|10=173|8=FIX.4.4|9=147|35=S|34=306|49=INITIATOR|52=20260317-20:16:26.528|56=ACCEPTOR|55=MSFT|60=20260317-20:16:26|117=976e86ae|132=414.2168|133=414.424|134=4300|135=1400|10=122|8=FIX.4.4|9=136|35=AE|34=307|49=INITIATOR|52=20260317-20:16:26.528|56=ACCEPTOR|31=414.3035|32=2000|54=2|55=MSFT|60=20260317-20:16:26|487=0|571=d65ab6f2|10=121|8=FIX.4.4|9=148|35=S|34=308|49=INITIATOR|52=20260317-20:16:26.528|56=ACCEPTOR|55=GOOGL|60=20260317-20:16:26|117=ee983f4f|132=175.1274|133=175.215|134=3500|135=4400|10=241|8=FIX.4.4|9=137|35=AE|34=309|49=INITIATOR|52=20260317-20:16:26.528|56=ACCEPTOR|31=175.2315|32=1700|54=1|55=GOOGL|60=20260317-20:16:26|487=0|571=e88452ca|10=151|8=FIX.4.4|9=146|35=S|34=310|49=INITIATOR|52=20260317-20:16:26.528|56=ACCEPTOR|55=AMZN|60=20260317-20:16:26|117=c46beaa2|132=193.3533|133=193.45|134=5000|135=3700|10=144|8=FIX.4.4|9=136|35=AE|34=311|49=INITIATOR|52=20260317-20:16:26.528|56=ACCEPTOR|31=193.4532|32=2000|54=2|55=AMZN|60=20260317-20:16:26|487=0|571=d44565dd|10=075|8=FIX.4.4|9=148|35=S|34=312|49=INITIATOR|52=20260317-20:16:26.529|56=ACCEPTOR|55=TSLA|60=20260317-20:16:26|117=861063cd|132=174.3324|133=174.4196|134=5000|135=5000|10=108|8=FIX.4.4|9=135|35=AE|34=313|49=INITIATOR|52=20260317-20:16:26.529|56=ACCEPTOR|31=174.4347|32=400|54=1|55=TSLA|60=20260317-20:16:26|487=0|571=72219713|10=139|8=FIX.4.4|9=147|35=S|34=314|49=INITIATOR|52=20260317-20:16:28.529|56=ACCEPTOR|55=AAPL|60=20260317-20:16:28|117=e3dd765c|132=186.7207|133=186.8141|134=2200|135=100|10=144|8=FIX.4.4|9=135|35=AE|34=315|49=INITIATOR|52=20260317-20:16:28.529|56=ACCEPTOR|31=186.8004|32=900|54=2|55=AAPL|60=20260317-20:16:28|487=0|571=d61e8704|10=225|8=FIX.4.4|9=147|35=S|34=316|49=INITIATOR|52=20260317-20:16:28.530|56=ACCEPTOR|55=MSFT|60=20260317-20:16:28|117=cc58c8aa|132=414.3318|133=414.539|134=2000|135=1400|10=201|8=FIX.4.4|9=135|35=AE|34=317|49=INITIATOR|52=20260317-20:16:28.530|56=ACCEPTOR|31=414.3522|32=600|54=1|55=MSFT|60=20260317-20:16:28|487=0|571=f6a6bacc|10=166|8=FIX.4.4|9=149|35=S|34=318|49=INITIATOR|52=20260317-20:16:28.530|56=ACCEPTOR|55=GOOGL|60=20260317-20:16:28|117=74c2352e|132=175.4121|133=175.4998|134=2700|135=3900|10=198|8=FIX.4.4|9=137|35=AE|34=319|49=INITIATOR|52=20260317-20:16:28.530|56=ACCEPTOR|31=175.4873|32=1900|54=1|55=GOOGL|60=20260317-20:16:28|487=0|571=8ce658b3|10=166|8=FIX.4.4|9=147|35=S|34=320|49=INITIATOR|52=20260317-20:16:28.530|56=ACCEPTOR|55=AMZN|60=20260317-20:16:28|117=578ed23e|132=193.192|133=193.2886|134=2900|135=2700|10=128|8=FIX.4.4|9=136|35=AE|34=321|49=INITIATOR|52=20260317-20:16:28.530|56=ACCEPTOR|31=193.2474|32=1900|54=2|55=AMZN|60=20260317-20:16:28|487=0|571=972f2989|10=004|8=FIX.4.4|9=148|35=S|34=322|49=INITIATOR|52=20260317-20:16:28.530|56=ACCEPTOR|55=TSLA|60=20260317-20:16:28|117=4424e7c9|132=174.6401|133=174.7275|134=3900|135=1400|10=119|8=FIX.4.4|9=135|35=AE|34=323|49=INITIATOR|52=20260317-20:16:28.531|56=ACCEPTOR|31=174.6558|32=700|54=1|55=TSLA|60=20260317-20:16:28|487=0|571=3b0a636e|10=028|8=FIX.4.4|9=147|35=S|34=324|49=INITIATOR|52=20260317-20:16:30.531|56=ACCEPTOR|55=AAPL|60=20260317-20:16:30|117=f0a07cab|132=186.5876|133=186.6809|134=4200|135=700|10=182|8=FIX.4.4|9=135|35=AE|34=325|49=INITIATOR|52=20260317-20:16:30.531|56=ACCEPTOR|31=186.7216|32=700|54=2|55=AAPL|60=20260317-20:16:30|487=0|571=4259285b|10=161|8=FIX.4.4|9=147|35=S|34=326|49=INITIATOR|52=20260317-20:16:30.532|56=ACCEPTOR|55=MSFT|60=20260317-20:16:30|117=02830fbd|132=414.1091|133=414.3161|134=4300|135=500|10=082|8=FIX.4.4|9=136|35=AE|34=327|49=INITIATOR|52=20260317-20:16:30.532|56=ACCEPTOR|31=414.2031|32=1800|54=2|55=MSFT|60=20260317-20:16:30|487=0|571=a51152d0|10=001|8=FIX.4.4|9=148|35=S|34=328|49=INITIATOR|52=20260317-20:16:30.532|56=ACCEPTOR|55=GOOGL|60=20260317-20:16:30|117=694c4690|132=175.6549|133=175.7427|134=900|135=1100|10=096|8=FIX.4.4|9=136|35=AE|34=329|49=INITIATOR|52=20260317-20:16:30.532|56=ACCEPTOR|31=175.679|32=1100|54=1|55=GOOGL|60=20260317-20:16:30|487=0|571=fb4ef696|10=150|8=FIX.4.4|9=146|35=S|34=330|49=INITIATOR|52=20260317-20:16:30.532|56=ACCEPTOR|55=AMZN|60=20260317-20:16:30|117=ab705708|132=193.509|133=193.6058|134=900|135=2300|10=002|8=FIX.4.4|9=136|35=AE|34=331|49=INITIATOR|52=20260317-20:16:30.532|56=ACCEPTOR|31=193.5227|32=1200|54=1|55=AMZN|60=20260317-20:16:30|487=0|571=6f008ed5|10=062|8=FIX.4.4|9=146|35=S|34=332|49=INITIATOR|52=20260317-20:16:30.532|56=ACCEPTOR|55=TSLA|60=20260317-20:16:30|117=e1f04e18|132=174.4653|133=174.5526|134=200|135=600|10=045|8=FIX.4.4|9=135|35=AE|34=333|49=INITIATOR|52=20260317-20:16:30.533|56=ACCEPTOR|31=174.5005|32=400|54=2|55=TSLA|60=20260317-20:16:30|487=0|571=2a079833|10=168|8=FIX.4.4|9=148|35=S|34=334|49=INITIATOR|52=20260317-20:16:32.533|56=ACCEPTOR|55=AAPL|60=20260317-20:16:32|117=c281253f|132=186.6749|133=186.7683|134=4900|135=3900|10=117|8=FIX.4.4|9=136|35=AE|34=335|49=INITIATOR|52=20260317-20:16:32.533|56=ACCEPTOR|31=186.7148|32=1200|54=1|55=AAPL|60=20260317-20:16:32|487=0|571=2086c277|10=214|8=FIX.4.4|9=147|35=S|34=336|49=INITIATOR|52=20260317-20:16:32.533|56=ACCEPTOR|55=MSFT|60=20260317-20:16:32|117=33b1ac2a|132=414.5041|133=414.7115|134=4900|135=600|10=136|8=FIX.4.4|9=136|35=AE|34=337|49=INITIATOR|52=20260317-20:16:32.534|56=ACCEPTOR|31=414.7935|32=1500|54=1|55=MSFT|60=20260317-20:16:32|487=0|571=80b09bab|10=123|8=FIX.4.4|9=149|35=S|34=338|49=INITIATOR|52=20260317-20:16:32.534|56=ACCEPTOR|55=GOOGL|60=20260317-20:16:32|117=36ca89b9|132=175.3405|133=175.4281|134=4700|135=3100|10=235|8=FIX.4.4|9=137|35=AE|34=339|49=INITIATOR|52=20260317-20:16:32.534|56=ACCEPTOR|31=175.3201|32=1400|54=1|55=GOOGL|60=20260317-20:16:32|487=0|571=0acbcdb2|10=006|8=FIX.4.4|9=148|35=S|34=340|49=INITIATOR|52=20260317-20:16:32.534|56=ACCEPTOR|55=AMZN|60=20260317-20:16:32|117=033cb03a|132=193.5511|133=193.6479|134=5000|135=3500|10=144|8=FIX.4.4|9=135|35=AE|34=341|49=INITIATOR|52=20260317-20:16:32.534|56=ACCEPTOR|31=193.6392|32=200|54=2|55=AMZN|60=20260317-20:16:32|487=0|571=355a3019|10=177|8=FIX.4.4|9=148|35=S|34=342|49=INITIATOR|52=20260317-20:16:32.534|56=ACCEPTOR|55=TSLA|60=20260317-20:16:32|117=efaddfcc|132=174.1677|133=174.2549|134=3000|135=4000|10=140|8=FIX.4.4|9=135|35=AE|34=343|49=INITIATOR|52=20260317-20:16:32.534|56=ACCEPTOR|31=174.2069|32=500|54=1|55=TSLA|60=20260317-20:16:32|487=0|571=493b37a1|10=226|8=FIX.4.4|9=74|35=A|34=344|49=INITIATOR|52=20260317-20:16:53.661|56=ACCEPTOR|98=0|108=30|10=114|8=FIX.4.4|9=74|35=A|34=345|49=INITIATOR|52=20260317-20:16:59.616|56=ACCEPTOR|98=0|108=30|10=121|8=FIX.4.4|9=146|35=S|34=346|49=INITIATOR|52=20260317-20:17:01.613|56=ACCEPTOR|55=AAPL|60=20260317-20:17:01|117=3079d26e|132=184.888|133=184.9804|134=3500|135=700|10=002|8=FIX.4.4|9=135|35=AE|34=347|49=INITIATOR|52=20260317-20:17:01.613|56=ACCEPTOR|31=184.899|32=1400|54=2|55=AAPL|60=20260317-20:17:01|487=0|571=cc082c21|10=251|8=FIX.4.4|9=148|35=S|34=348|49=INITIATOR|52=20260317-20:17:01.613|56=ACCEPTOR|55=MSFT|60=20260317-20:17:01|117=28a527e3|132=415.6886|133=415.8965|134=1100|135=3200|10=124|8=FIX.4.4|9=135|35=AE|34=349|49=INITIATOR|52=20260317-20:17:01.613|56=ACCEPTOR|31=415.7256|32=100|54=2|55=MSFT|60=20260317-20:17:01|487=0|571=8cb70548|10=235|8=FIX.4.4|9=149|35=S|34=350|49=INITIATOR|52=20260317-20:17:01.613|56=ACCEPTOR|55=GOOGL|60=20260317-20:17:01|117=a9cb7826|132=174.8102|133=174.8976|134=2000|135=4300|10=224|8=FIX.4.4|9=137|35=AE|34=351|49=INITIATOR|52=20260317-20:17:01.614|56=ACCEPTOR|31=174.8642|32=1700|54=1|55=GOOGL|60=20260317-20:17:01|487=0|571=9bb2964b|10=140|8=FIX.4.4|9=147|35=S|34=352|49=INITIATOR|52=20260317-20:17:01.614|56=ACCEPTOR|55=AMZN|60=20260317-20:17:01|117=7dd281ea|132=194.9314|133=195.029|134=3800|135=2400|10=153|8=FIX.4.4|9=135|35=AE|34=353|49=INITIATOR|52=20260317-20:17:01.614|56=ACCEPTOR|31=195.0084|32=400|54=2|55=AMZN|60=20260317-20:17:01|487=0|571=5ae7605b|10=013|8=FIX.4.4|9=147|35=S|34=354|49=INITIATOR|52=20260317-20:17:01.614|56=ACCEPTOR|55=TSLA|60=20260317-20:17:01|117=f0e37fd6|132=175.1184|133=175.206|134=2400|135=2100|10=141|8=FIX.4.4|9=136|35=AE|34=355|49=INITIATOR|52=20260317-20:17:01.614|56=ACCEPTOR|31=175.1179|32=1500|54=2|55=TSLA|60=20260317-20:17:01|487=0|571=9e2e3fca|10=167|8=FIX.4.4|9=148|35=S|34=356|49=INITIATOR|52=20260317-20:17:03.614|56=ACCEPTOR|55=AAPL|60=20260317-20:17:03|117=2bff43fa|132=184.7897|133=184.8821|134=4700|135=4100|10=250|8=FIX.4.4|9=135|35=AE|34=357|49=INITIATOR|52=20260317-20:17:03.615|56=ACCEPTOR|31=184.9184|32=600|54=1|55=AAPL|60=20260317-20:17:03|487=0|571=d3061a80|10=207|8=FIX.4.4|9=148|35=S|34=358|49=INITIATOR|52=20260317-20:17:03.615|56=ACCEPTOR|55=MSFT|60=20260317-20:17:03|117=3ae2af30|132=415.4296|133=415.6374|134=4700|135=4400|10=212|8=FIX.4.4|9=135|35=AE|34=359|49=INITIATOR|52=20260317-20:17:03.615|56=ACCEPTOR|31=415.4004|32=600|54=1|55=MSFT|60=20260317-20:17:03|487=0|571=7a24dee8|10=073|8=FIX.4.4|9=149|35=S|34=360|49=INITIATOR|52=20260317-20:17:03.615|56=ACCEPTOR|55=GOOGL|60=20260317-20:17:03|117=3db4d2c5|132=174.8087|133=174.8961|134=2700|135=4600|10=028|8=FIX.4.4|9=137|35=AE|34=361|49=INITIATOR|52=20260317-20:17:03.615|56=ACCEPTOR|31=174.8101|32=1400|54=1|55=GOOGL|60=20260317-20:17:03|487=0|571=b0453e3a|10=120|8=FIX.4.4|9=148|35=S|34=362|49=INITIATOR|52=20260317-20:17:03.615|56=ACCEPTOR|55=AMZN|60=20260317-20:17:03|117=6540d84a|132=194.8095|133=194.9069|134=1700|135=3300|10=126|8=FIX.4.4|9=136|35=AE|34=363|49=INITIATOR|52=20260317-20:17:03.616|56=ACCEPTOR|31=194.7995|32=1500|54=2|55=AMZN|60=20260317-20:17:03|487=0|571=19fe137e|10=094|8=FIX.4.4|9=148|35=S|34=364|49=INITIATOR|52=20260317-20:17:03.616|56=ACCEPTOR|55=TSLA|60=20260317-20:17:03|117=3ad3a02d|132=175.0819|133=175.1695|134=1300|135=3600|10=199|8=FIX.4.4|9=136|35=AE|34=365|49=INITIATOR|52=20260317-20:17:03.616|56=ACCEPTOR|31=175.0602|32=1700|54=1|55=TSLA|60=20260317-20:17:03|487=0|571=75ab629a|10=068|8=FIX.4.4|9=147|35=S|34=366|49=INITIATOR|52=20260317-20:17:05.616|56=ACCEPTOR|55=AAPL|60=20260317-20:17:05|117=4324e23b|132=184.984|133=185.0764|134=4200|135=3200|10=043|8=FIX.4.4|9=135|35=AE|34=367|49=INITIATOR|52=20260317-20:17:05.616|56=ACCEPTOR|31=184.9937|32=600|54=1|55=AAPL|60=20260317-20:17:05|487=0|571=8d21263d|10=226|8=FIX.4.4|9=147|35=S|34=368|49=INITIATOR|52=20260317-20:17:05.616|56=ACCEPTOR|55=MSFT|60=20260317-20:17:05|117=f30d018a|132=415.5182|133=415.726|134=4000|135=1200|10=101|8=FIX.4.4|9=136|35=AE|34=369|49=INITIATOR|52=20260317-20:17:05.617|56=ACCEPTOR|31=415.6207|32=1500|54=2|55=MSFT|60=20260317-20:17:05|487=0|571=3e1d69eb|10=136|8=FIX.4.4|9=149|35=S|34=370|49=INITIATOR|52=20260317-20:17:05.617|56=ACCEPTOR|55=GOOGL|60=20260317-20:17:05|117=be310295|132=174.4868|133=174.5742|134=2400|135=2600|10=187|8=FIX.4.4|9=136|35=AE|34=371|49=INITIATOR|52=20260317-20:17:05.617|56=ACCEPTOR|31=174.6173|32=200|54=1|55=GOOGL|60=20260317-20:17:05|487=0|571=89011c29|10=252|8=FIX.4.4|9=147|35=S|34=372|49=INITIATOR|52=20260317-20:17:05.617|56=ACCEPTOR|55=AMZN|60=20260317-20:17:05|117=6125e3ca|132=194.5291|133=194.6265|134=1400|135=400|10=111|8=FIX.4.4|9=136|35=AE|34=373|49=INITIATOR|52=20260317-20:17:05.617|56=ACCEPTOR|31=194.6598|32=1900|54=1|55=AMZN|60=20260317-20:17:05|487=0|571=a083e722|10=044|8=FIX.4.4|9=147|35=S|34=374|49=INITIATOR|52=20260317-20:17:05.617|56=ACCEPTOR|55=TSLA|60=20260317-20:17:05|117=7160eae1|132=175.0188|133=175.1062|134=900|135=1600|10=106|8=FIX.4.4|9=136|35=AE|34=375|49=INITIATOR|52=20260317-20:17:05.617|56=ACCEPTOR|31=175.0108|32=1200|54=2|55=TSLA|60=20260317-20:17:05|487=0|571=8f1a5d8f|10=125|8=FIX.4.4|9=146|35=S|34=376|49=INITIATOR|52=20260317-20:17:07.618|56=ACCEPTOR|55=AAPL|60=20260317-20:17:07|117=da3c3cf5|132=184.973|133=185.0654|134=700|135=2300|10=145|8=FIX.4.4|9=136|35=AE|34=377|49=INITIATOR|52=20260317-20:17:07.618|56=ACCEPTOR|31=185.0976|32=1500|54=1|55=AAPL|60=20260317-20:17:07|487=0|571=f4036e08|10=023|8=FIX.4.4|9=148|35=S|34=378|49=INITIATOR|52=20260317-20:17:07.618|56=ACCEPTOR|55=MSFT|60=20260317-20:17:07|117=7a4e82b5|132=415.3293|133=415.5371|134=2700|135=2400|10=178|8=FIX.4.4|9=135|35=AE|34=379|49=INITIATOR|52=20260317-20:17:07.618|56=ACCEPTOR|31=415.6011|32=500|54=2|55=MSFT|60=20260317-20:17:07|487=0|571=ee912e46|10=039|8=FIX.4.4|9=148|35=S|34=380|49=INITIATOR|52=20260317-20:17:07.618|56=ACCEPTOR|55=GOOGL|60=20260317-20:17:07|117=dfb288b2|132=174.212|133=174.2991|134=4000|135=4000|10=223|8=FIX.4.4|9=136|35=AE|34=381|49=INITIATOR|52=20260317-20:17:07.618|56=ACCEPTOR|31=174.2851|32=300|54=2|55=GOOGL|60=20260317-20:17:07|487=0|571=14f7015b|10=044|8=FIX.4.4|9=148|35=S|34=382|49=INITIATOR|52=20260317-20:17:07.619|56=ACCEPTOR|55=AMZN|60=20260317-20:17:07|117=3901d30d|132=194.4154|133=194.5126|134=3800|135=5000|10=116|8=FIX.4.4|9=136|35=AE|34=383|49=INITIATOR|52=20260317-20:17:07.619|56=ACCEPTOR|31=194.4435|32=1100|54=2|55=AMZN|60=20260317-20:17:07|487=0|571=c08ba2d0|10=120|8=FIX.4.4|9=148|35=S|34=384|49=INITIATOR|52=20260317-20:17:07.619|56=ACCEPTOR|55=TSLA|60=20260317-20:17:07|117=9fabfe64|132=174.9675|133=175.0549|134=4100|135=4400|10=030|8=FIX.4.4|9=135|35=AE|34=385|49=INITIATOR|52=20260317-20:17:07.619|56=ACCEPTOR|31=175.0524|32=500|54=1|55=TSLA|60=20260317-20:17:07|487=0|571=2fd4690e|10=035|8=FIX.4.4|9=147|35=S|34=386|49=INITIATOR|52=20260317-20:17:09.619|56=ACCEPTOR|55=AAPL|60=20260317-20:17:09|117=41599f1b|132=185.1495|133=185.2421|134=400|135=2200|10=056|8=FIX.4.4|9=135|35=AE|34=387|49=INITIATOR|52=20260317-20:17:09.619|56=ACCEPTOR|31=185.1909|32=500|54=1|55=AAPL|60=20260317-20:17:09|487=0|571=39ed6afa|10=123|8=FIX.4.4|9=147|35=S|34=388|49=INITIATOR|52=20260317-20:17:09.620|56=ACCEPTOR|55=MSFT|60=20260317-20:17:09|117=6c5d27f8|132=415.1084|133=415.316|134=2900|135=3800|10=131|8=FIX.4.4|9=135|35=AE|34=389|49=INITIATOR|52=20260317-20:17:09.620|56=ACCEPTOR|31=415.1703|32=500|54=2|55=MSFT|60=20260317-20:17:09|487=0|571=168aa828|10=246|8=FIX.4.4|9=149|35=S|34=390|49=INITIATOR|52=20260317-20:17:09.620|56=ACCEPTOR|55=GOOGL|60=20260317-20:17:09|117=e067c8cb|132=174.4663|133=174.5537|134=1900|135=1000|10=030|8=FIX.4.4|9=137|35=AE|34=391|49=INITIATOR|52=20260317-20:17:09.620|56=ACCEPTOR|31=174.5689|32=1300|54=1|55=GOOGL|60=20260317-20:17:09|487=0|571=3115fb29|10=106|8=FIX.4.4|9=147|35=S|34=392|49=INITIATOR|52=20260317-20:17:09.620|56=ACCEPTOR|55=AMZN|60=20260317-20:17:09|117=8bd720df|132=194.0808|133=194.178|134=5000|135=2700|10=171|8=FIX.4.4|9=136|35=AE|34=393|49=INITIATOR|52=20260317-20:17:09.620|56=ACCEPTOR|31=194.1527|32=1100|54=1|55=AMZN|60=20260317-20:17:09|487=0|571=3b4c5486|10=034|8=FIX.4.4|9=147|35=S|34=394|49=INITIATOR|52=20260317-20:17:09.620|56=ACCEPTOR|55=TSLA|60=20260317-20:17:09|117=02838e9d|132=174.7325|133=174.8199|134=1300|135=300|10=082|8=FIX.4.4|9=136|35=AE|34=395|49=INITIATOR|52=20260317-20:17:09.620|56=ACCEPTOR|31=174.7345|32=2000|54=1|55=TSLA|60=20260317-20:17:09|487=0|571=46cd7a96|10=089|8=FIX.4.4|9=147|35=S|34=396|49=INITIATOR|52=20260317-20:17:11.621|56=ACCEPTOR|55=AAPL|60=20260317-20:17:11|117=7cedc8ba|132=184.8315|133=184.9239|134=400|135=3500|10=238|8=FIX.4.4|9=136|35=AE|34=397|49=INITIATOR|52=20260317-20:17:11.621|56=ACCEPTOR|31=184.9382|32=1200|54=2|55=AAPL|60=20260317-20:17:11|487=0|571=77be3981|10=016|8=FIX.4.4|9=148|35=S|34=398|49=INITIATOR|52=20260317-20:17:11.621|56=ACCEPTOR|55=MSFT|60=20260317-20:17:11|117=be6e0383|132=415.3838|133=415.5916|134=1100|135=2700|10=168|8=FIX.4.4|9=135|35=AE|34=399|49=INITIATOR|52=20260317-20:17:11.621|56=ACCEPTOR|31=415.4529|32=400|54=2|55=MSFT|60=20260317-20:17:11|487=0|571=6b15af82|10=030|8=FIX.4.4|9=148|35=S|34=400|49=INITIATOR|52=20260317-20:17:11.621|56=ACCEPTOR|55=GOOGL|60=20260317-20:17:11|117=94048346|132=174.3188|133=174.406|134=4800|135=3000|10=023|8=FIX.4.4|9=137|35=AE|34=401|49=INITIATOR|52=20260317-20:17:11.622|56=ACCEPTOR|31=174.3397|32=2000|54=2|55=GOOGL|60=20260317-20:17:11|487=0|571=557fe6a5|10=138|8=FIX.4.4|9=148|35=S|34=402|49=INITIATOR|52=20260317-20:17:11.622|56=ACCEPTOR|55=AMZN|60=20260317-20:17:11|117=53d78e54|132=194.3303|133=194.4275|134=1000|135=3700|10=104|8=FIX.4.4|9=135|35=AE|34=403|49=INITIATOR|52=20260317-20:17:11.622|56=ACCEPTOR|31=194.3139|32=600|54=1|55=AMZN|60=20260317-20:17:11|487=0|571=dac98491|10=022|8=FIX.4.4|9=148|35=S|34=404|49=INITIATOR|52=20260317-20:17:11.622|56=ACCEPTOR|55=TSLA|60=20260317-20:17:11|117=7d936e4d|132=174.6314|133=174.7188|134=2700|135=4500|10=167|8=FIX.4.4|9=136|35=AE|34=405|49=INITIATOR|52=20260317-20:17:11.622|56=ACCEPTOR|31=174.6546|32=1500|54=2|55=TSLA|60=20260317-20:17:11|487=0|571=13d8a6eb|10=114|8=FIX.4.4|9=148|35=S|34=406|49=INITIATOR|52=20260317-20:17:13.622|56=ACCEPTOR|55=AAPL|60=20260317-20:17:13|117=3c1fc9f3|132=184.8184|133=184.9108|134=2300|135=2300|10=186|8=FIX.4.4|9=135|35=AE|34=407|49=INITIATOR|52=20260317-20:17:13.623|56=ACCEPTOR|31=184.9358|32=100|54=1|55=AAPL|60=20260317-20:17:13|487=0|571=3946342b|10=164|8=FIX.4.4|9=146|35=S|34=408|49=INITIATOR|52=20260317-20:17:13.623|56=ACCEPTOR|55=MSFT|60=20260317-20:17:13|117=aff50a92|132=415.4982|133=415.706|134=400|135=3600|10=109|8=FIX.4.4|9=136|35=AE|34=409|49=INITIATOR|52=20260317-20:17:13.623|56=ACCEPTOR|31=415.7629|32=1400|54=1|55=MSFT|60=20260317-20:17:13|487=0|571=81872749|10=208|8=FIX.4.4|9=149|35=S|34=410|49=INITIATOR|52=20260317-20:17:13.623|56=ACCEPTOR|55=GOOGL|60=20260317-20:17:13|117=55008cd9|132=173.9976|133=174.0846|134=3700|135=3300|10=190|8=FIX.4.4|9=136|35=AE|34=411|49=INITIATOR|52=20260317-20:17:13.623|56=ACCEPTOR|31=174.0104|32=400|54=2|55=GOOGL|60=20260317-20:17:13|487=0|571=0691f12f|10=023|8=FIX.4.4|9=148|35=S|34=412|49=INITIATOR|52=20260317-20:17:13.623|56=ACCEPTOR|55=AMZN|60=20260317-20:17:13|117=353cbc78|132=194.3023|133=194.3995|134=3600|135=4400|10=164|8=FIX.4.4|9=136|35=AE|34=413|49=INITIATOR|52=20260317-20:17:13.623|56=ACCEPTOR|31=194.3185|32=1100|54=2|55=AMZN|60=20260317-20:17:13|487=0|571=c180cb23|10=058|8=FIX.4.4|9=148|35=S|34=414|49=INITIATOR|52=20260317-20:17:13.623|56=ACCEPTOR|55=TSLA|60=20260317-20:17:13|117=bfe81bc9|132=174.6594|133=174.7468|134=3200|135=1400|10=010|8=FIX.4.4|9=136|35=AE|34=415|49=INITIATOR|52=20260317-20:17:13.624|56=ACCEPTOR|31=174.6963|32=1900|54=1|55=TSLA|60=20260317-20:17:13|487=0|571=b883e1f5|10=087|8=FIX.4.4|9=148|35=S|34=416|49=INITIATOR|52=20260317-20:17:15.624|56=ACCEPTOR|55=AAPL|60=20260317-20:17:15|117=083e1e9e|132=184.7231|133=184.8155|134=3200|135=4900|10=148|8=FIX.4.4|9=136|35=AE|34=417|49=INITIATOR|52=20260317-20:17:15.624|56=ACCEPTOR|31=184.7892|32=1600|54=2|55=AAPL|60=20260317-20:17:15|487=0|571=a0283a91|10=011|8=FIX.4.4|9=148|35=S|34=418|49=INITIATOR|52=20260317-20:17:15.624|56=ACCEPTOR|55=MSFT|60=20260317-20:17:15|117=7874bc4c|132=415.7932|133=416.0011|134=1100|135=2200|10=154|8=FIX.4.4|9=135|35=AE|34=419|49=INITIATOR|52=20260317-20:17:15.625|56=ACCEPTOR|31=416.062|32=1000|54=2|55=MSFT|60=20260317-20:17:15|487=0|571=edb6f9aa|10=168|8=FIX.4.4|9=148|35=S|34=420|49=INITIATOR|52=20260317-20:17:15.625|56=ACCEPTOR|55=GOOGL|60=20260317-20:17:15|117=d4ebc157|132=173.7618|133=173.8487|134=400|135=4200|10=234|8=FIX.4.4|9=137|35=AE|34=421|49=INITIATOR|52=20260317-20:17:15.625|56=ACCEPTOR|31=173.8169|32=1700|54=2|55=GOOGL|60=20260317-20:17:15|487=0|571=b97cd702|10=152|8=FIX.4.4|9=148|35=S|34=422|49=INITIATOR|52=20260317-20:17:15.625|56=ACCEPTOR|55=AMZN|60=20260317-20:17:15|117=5f6adfa6|132=194.2245|133=194.3217|134=4000|135=3200|10=252|8=FIX.4.4|9=135|35=AE|34=423|49=INITIATOR|52=20260317-20:17:15.625|56=ACCEPTOR|31=194.2359|32=200|54=2|55=AMZN|60=20260317-20:17:15|487=0|571=2fad9cb8|10=127|8=FIX.4.4|9=147|35=S|34=424|49=INITIATOR|52=20260317-20:17:15.625|56=ACCEPTOR|55=TSLA|60=20260317-20:17:15|117=b6c7cbf4|132=174.8724|133=174.9598|134=300|135=1100|10=219|8=FIX.4.4|9=136|35=AE|34=425|49=INITIATOR|52=20260317-20:17:15.626|56=ACCEPTOR|31=174.8579|32=1100|54=2|55=TSLA|60=20260317-20:17:15|487=0|571=18ad2501|10=028|8=FIX.4.4|9=147|35=S|34=426|49=INITIATOR|52=20260317-20:17:17.626|56=ACCEPTOR|55=AAPL|60=20260317-20:17:17|117=2c251e37|132=184.7959|133=184.8883|134=1100|135=800|10=067|8=FIX.4.4|9=136|35=AE|34=427|49=INITIATOR|52=20260317-20:17:17.626|56=ACCEPTOR|31=184.8804|32=1800|54=2|55=AAPL|60=20260317-20:17:17|487=0|571=0e3be0eb|10=155|8=FIX.4.4|9=147|35=S|34=428|49=INITIATOR|52=20260317-20:17:17.626|56=ACCEPTOR|55=MSFT|60=20260317-20:17:17|117=a611561a|132=415.9385|133=416.1465|134=2400|135=800|10=074|8=FIX.4.4|9=136|35=AE|34=429|49=INITIATOR|52=20260317-20:17:17.626|56=ACCEPTOR|31=415.8954|32=1600|54=2|55=MSFT|60=20260317-20:17:17|487=0|571=26897976|10=234|8=FIX.4.4|9=147|35=S|34=430|49=INITIATOR|52=20260317-20:17:17.626|56=ACCEPTOR|55=GOOGL|60=20260317-20:17:17|117=afa92c3e|132=173.7345|133=173.8214|134=700|135=900|10=229|8=FIX.4.4|9=137|35=AE|34=431|49=INITIATOR|52=20260317-20:17:17.627|56=ACCEPTOR|31=173.8278|32=1900|54=2|55=GOOGL|60=20260317-20:17:17|487=0|571=b793d819|10=123|8=FIX.4.4|9=147|35=S|34=432|49=INITIATOR|52=20260317-20:17:17.627|56=ACCEPTOR|55=AMZN|60=20260317-20:17:17|117=993795d8|132=194.0753|133=194.1724|134=2000|135=100|10=034|8=FIX.4.4|9=136|35=AE|34=433|49=INITIATOR|52=20260317-20:17:17.627|56=ACCEPTOR|31=194.0823|32=1100|54=2|55=AMZN|60=20260317-20:17:17|487=0|571=892a3d2f|10=081|8=FIX.4.4|9=148|35=S|34=434|49=INITIATOR|52=20260317-20:17:17.627|56=ACCEPTOR|55=TSLA|60=20260317-20:17:17|117=51d12cf3|132=174.7568|133=174.8442|134=3200|135=2000|10=165|8=FIX.4.4|9=136|35=AE|34=435|49=INITIATOR|52=20260317-20:17:17.627|56=ACCEPTOR|31=174.7569|32=2000|54=1|55=TSLA|60=20260317-20:17:17|487=0|571=2ee895bc|10=144|8=FIX.4.4|9=148|35=S|34=436|49=INITIATOR|52=20260317-20:17:19.627|56=ACCEPTOR|55=AAPL|60=20260317-20:17:19|117=0818e633|132=184.7064|133=184.7988|134=5000|135=1800|10=076|8=FIX.4.4|9=134|35=AE|34=437|49=INITIATOR|52=20260317-20:17:19.628|56=ACCEPTOR|31=184.688|32=800|54=1|55=AAPL|60=20260317-20:17:19|487=0|571=947a9ee9|10=251|8=FIX.4.4|9=148|35=S|34=438|49=INITIATOR|52=20260317-20:17:19.628|56=ACCEPTOR|55=MSFT|60=20260317-20:17:19|117=2f653d61|132=415.9681|133=416.1761|134=1700|135=4300|10=140|8=FIX.4.4|9=136|35=AE|34=439|49=INITIATOR|52=20260317-20:17:19.628|56=ACCEPTOR|31=415.9077|32=1300|54=2|55=MSFT|60=20260317-20:17:19|487=0|571=7e335666|10=014|8=FIX.4.4|9=149|35=S|34=440|49=INITIATOR|52=20260317-20:17:19.628|56=ACCEPTOR|55=GOOGL|60=20260317-20:17:19|117=79708402|132=173.5609|133=173.6477|134=1900|135=4800|10=117|8=FIX.4.4|9=136|35=AE|34=441|49=INITIATOR|52=20260317-20:17:19.628|56=ACCEPTOR|31=173.561|32=2000|54=2|55=GOOGL|60=20260317-20:17:19|487=0|571=3c35ae40|10=088|8=FIX.4.4|9=148|35=S|34=442|49=INITIATOR|52=20260317-20:17:19.628|56=ACCEPTOR|55=AMZN|60=20260317-20:17:19|117=2ed4c988|132=194.4513|133=194.5485|134=4600|135=4300|10=194|8=FIX.4.4|9=136|35=AE|34=443|49=INITIATOR|52=20260317-20:17:19.628|56=ACCEPTOR|31=194.5849|32=1500|54=2|55=AMZN|60=20260317-20:17:19|487=0|571=85e556e5|10=065|8=FIX.4.4|9=148|35=S|34=444|49=INITIATOR|52=20260317-20:17:19.629|56=ACCEPTOR|55=TSLA|60=20260317-20:17:19|117=e5e41214|132=174.7015|133=174.7889|134=4100|135=2900|10=136|8=FIX.4.4|9=135|35=AE|34=445|49=INITIATOR|52=20260317-20:17:19.629|56=ACCEPTOR|31=174.726|32=1300|54=2|55=TSLA|60=20260317-20:17:19|487=0|571=a0445226|10=190|8=FIX.4.4|9=147|35=S|34=446|49=INITIATOR|52=20260317-20:17:21.629|56=ACCEPTOR|55=AAPL|60=20260317-20:17:21|117=0c66f5d4|132=184.6115|133=184.7039|134=4900|135=200|10=096|8=FIX.4.4|9=135|35=AE|34=447|49=INITIATOR|52=20260317-20:17:21.629|56=ACCEPTOR|31=184.7036|32=800|54=1|55=AAPL|60=20260317-20:17:21|487=0|571=ebd1d4bb|10=145|8=FIX.4.4|9=146|35=S|34=448|49=INITIATOR|52=20260317-20:17:21.629|56=ACCEPTOR|55=MSFT|60=20260317-20:17:21|117=c074a233|132=416.6516|133=416.86|134=1400|135=3100|10=008|8=FIX.4.4|9=136|35=AE|34=449|49=INITIATOR|52=20260317-20:17:21.630|56=ACCEPTOR|31=416.7141|32=1500|54=2|55=MSFT|60=20260317-20:17:21|487=0|571=eb0b6c68|10=122|8=FIX.4.4|9=149|35=S|34=450|49=INITIATOR|52=20260317-20:17:21.630|56=ACCEPTOR|55=GOOGL|60=20260317-20:17:21|117=16462398|132=173.5904|133=173.6772|134=2900|135=1000|10=085|8=FIX.4.4|9=136|35=AE|34=451|49=INITIATOR|52=20260317-20:17:21.630|56=ACCEPTOR|31=173.6391|32=300|54=2|55=GOOGL|60=20260317-20:17:21|487=0|571=fcb5290e|10=132|8=FIX.4.4|9=147|35=S|34=452|49=INITIATOR|52=20260317-20:17:21.630|56=ACCEPTOR|55=AMZN|60=20260317-20:17:21|117=e9acb808|132=194.4294|133=194.5266|134=500|135=2500|10=164|8=FIX.4.4|9=135|35=AE|34=453|49=INITIATOR|52=20260317-20:17:21.630|56=ACCEPTOR|31=194.4551|32=900|54=1|55=AMZN|60=20260317-20:17:21|487=0|571=8da09cb2|10=068|8=FIX.4.4|9=147|35=S|34=454|49=INITIATOR|52=20260317-20:17:21.630|56=ACCEPTOR|55=TSLA|60=20260317-20:17:21|117=59c5934a|132=174.4677|133=174.5551|134=600|135=2200|10=067|8=FIX.4.4|9=135|35=AE|34=455|49=INITIATOR|52=20260317-20:17:21.630|56=ACCEPTOR|31=174.5516|32=800|54=1|55=TSLA|60=20260317-20:17:21|487=0|571=1aaaee02|10=102|8=FIX.4.4|9=147|35=S|34=456|49=INITIATOR|52=20260317-20:17:23.631|56=ACCEPTOR|55=AAPL|60=20260317-20:17:23|117=8ceda9d5|132=184.5348|133=184.6272|134=3200|135=500|10=195|8=FIX.4.4|9=136|35=AE|34=457|49=INITIATOR|52=20260317-20:17:23.631|56=ACCEPTOR|31=184.5524|32=1800|54=1|55=AAPL|60=20260317-20:17:23|487=0|571=d02a1c1b|10=087|8=FIX.4.4|9=148|35=S|34=458|49=INITIATOR|52=20260317-20:17:23.631|56=ACCEPTOR|55=MSFT|60=20260317-20:17:23|117=a35fc287|132=416.0727|133=416.2807|134=3500|135=1100|10=166|8=FIX.4.4|9=136|35=AE|34=459|49=INITIATOR|52=20260317-20:17:23.631|56=ACCEPTOR|31=416.3242|32=1100|54=2|55=MSFT|60=20260317-20:17:23|487=0|571=a622bac0|10=107|8=FIX.4.4|9=149|35=S|34=460|49=INITIATOR|52=20260317-20:17:23.631|56=ACCEPTOR|55=GOOGL|60=20260317-20:17:23|117=758fa9dc|132=173.8666|133=173.9536|134=3500|135=1900|10=046|8=FIX.4.4|9=136|35=AE|34=461|49=INITIATOR|52=20260317-20:17:23.631|56=ACCEPTOR|31=173.9897|32=500|54=1|55=GOOGL|60=20260317-20:17:23|487=0|571=6d1b14b1|10=094|8=FIX.4.4|9=147|35=S|34=462|49=INITIATOR|52=20260317-20:17:23.632|56=ACCEPTOR|55=AMZN|60=20260317-20:17:23|117=20bbd621|132=194.107|133=194.2041|134=4800|135=3500|10=091|8=FIX.4.4|9=135|35=AE|34=463|49=INITIATOR|52=20260317-20:17:23.632|56=ACCEPTOR|31=194.1501|32=800|54=1|55=AMZN|60=20260317-20:17:23|487=0|571=9464fcc8|10=032|8=FIX.4.4|9=148|35=S|34=464|49=INITIATOR|52=20260317-20:17:23.632|56=ACCEPTOR|55=TSLA|60=20260317-20:17:23|117=4c175d80|132=174.1423|133=174.2295|134=2600|135=1600|10=109|8=FIX.4.4|9=135|35=AE|34=465|49=INITIATOR|52=20260317-20:17:23.632|56=ACCEPTOR|31=174.1057|32=800|54=2|55=TSLA|60=20260317-20:17:23|487=0|571=084b415a|10=227|8=FIX.4.4|9=148|35=S|34=466|49=INITIATOR|52=20260317-20:17:25.632|56=ACCEPTOR|55=AAPL|60=20260317-20:17:25|117=21e56438|132=184.7442|133=184.8366|134=2700|135=3000|10=058|8=FIX.4.4|9=136|35=AE|34=467|49=INITIATOR|52=20260317-20:17:25.632|56=ACCEPTOR|31=184.7707|32=1600|54=2|55=AAPL|60=20260317-20:17:25|487=0|571=ec93874e|10=079|8=FIX.4.4|9=148|35=S|34=468|49=INITIATOR|52=20260317-20:17:25.633|56=ACCEPTOR|55=MSFT|60=20260317-20:17:25|117=d3220589|132=416.4524|133=416.6608|134=3500|135=2300|10=080|8=FIX.4.4|9=136|35=AE|34=469|49=INITIATOR|52=20260317-20:17:25.633|56=ACCEPTOR|31=416.4413|32=1600|54=2|55=MSFT|60=20260317-20:17:25|487=0|571=a6c5c0a0|10=122|8=FIX.4.4|9=148|35=S|34=470|49=INITIATOR|52=20260317-20:17:25.633|56=ACCEPTOR|55=GOOGL|60=20260317-20:17:25|117=8b6acb3a|132=173.6623|133=173.7492|134=4800|135=700|10=026|8=FIX.4.4|9=136|35=AE|34=471|49=INITIATOR|52=20260317-20:17:25.633|56=ACCEPTOR|31=173.7255|32=200|54=2|55=GOOGL|60=20260317-20:17:25|487=0|571=7f7c847c|10=109|8=FIX.4.4|9=148|35=S|34=472|49=INITIATOR|52=20260317-20:17:25.633|56=ACCEPTOR|55=AMZN|60=20260317-20:17:25|117=4643419c|132=194.4249|133=194.5221|134=1500|135=4600|10=075|8=FIX.4.4|9=134|35=AE|34=473|49=INITIATOR|52=20260317-20:17:25.633|56=ACCEPTOR|31=194.456|32=900|54=1|55=AMZN|60=20260317-20:17:25|487=0|571=fdc672cd|10=086|8=FIX.4.4|9=148|35=S|34=474|49=INITIATOR|52=20260317-20:17:25.633|56=ACCEPTOR|55=TSLA|60=20260317-20:17:25|117=b300e015|132=174.2961|133=174.3833|134=4200|135=2300|10=102|8=FIX.4.4|9=135|35=AE|34=475|49=INITIATOR|52=20260317-20:17:25.633|56=ACCEPTOR|31=174.4131|32=200|54=2|55=TSLA|60=20260317-20:17:25|487=0|571=1ddfb41b|10=110|8=FIX.4.4|9=147|35=S|34=476|49=INITIATOR|52=20260317-20:17:27.634|56=ACCEPTOR|55=AAPL|60=20260317-20:17:27|117=66c9182f|132=184.7087|133=184.8011|134=100|135=2100|10=055|8=FIX.4.4|9=135|35=AE|34=477|49=INITIATOR|52=20260317-20:17:27.634|56=ACCEPTOR|31=184.7929|32=900|54=2|55=AAPL|60=20260317-20:17:27|487=0|571=fc75b2bb|10=126|8=FIX.4.4|9=147|35=S|34=478|49=INITIATOR|52=20260317-20:17:27.634|56=ACCEPTOR|55=MSFT|60=20260317-20:17:27|117=dad4f31c|132=416.9109|133=417.1193|134=200|135=2400|10=216|8=FIX.4.4|9=135|35=AE|34=479|49=INITIATOR|52=20260317-20:17:27.634|56=ACCEPTOR|31=417.2145|32=700|54=2|55=MSFT|60=20260317-20:17:27|487=0|571=7969de54|10=014|8=FIX.4.4|9=148|35=S|34=480|49=INITIATOR|52=20260317-20:17:27.634|56=ACCEPTOR|55=GOOGL|60=20260317-20:17:27|117=2d2ed6b4|132=173.8645|133=173.9515|134=3500|135=800|10=244|8=FIX.4.4|9=136|35=AE|34=481|49=INITIATOR|52=20260317-20:17:27.635|56=ACCEPTOR|31=173.9721|32=600|54=2|55=GOOGL|60=20260317-20:17:27|487=0|571=eadc1d75|10=201|8=FIX.4.4|9=148|35=S|34=482|49=INITIATOR|52=20260317-20:17:27.635|56=ACCEPTOR|55=AMZN|60=20260317-20:17:27|117=ef660bcd|132=194.1462|133=194.2433|134=2200|135=4600|10=010|8=FIX.4.4|9=136|35=AE|34=483|49=INITIATOR|52=20260317-20:17:27.635|56=ACCEPTOR|31=194.2761|32=1800|54=1|55=AMZN|60=20260317-20:17:27|487=0|571=982244b1|10=253|8=FIX.4.4|9=148|35=S|34=484|49=INITIATOR|52=20260317-20:17:27.635|56=ACCEPTOR|55=TSLA|60=20260317-20:17:27|117=c392647f|132=174.6097|133=174.6971|134=2000|135=1400|10=139|8=FIX.4.4|9=136|35=AE|34=485|49=INITIATOR|52=20260317-20:17:27.635|56=ACCEPTOR|31=174.6267|32=1800|54=1|55=TSLA|60=20260317-20:17:27|487=0|571=20bd859e|10=099|8=FIX.4.4|9=147|35=S|34=486|49=INITIATOR|52=20260317-20:17:29.635|56=ACCEPTOR|55=AAPL|60=20260317-20:17:29|117=5145d681|132=184.9498|133=185.0422|134=600|135=5000|10=020|8=FIX.4.4|9=135|35=AE|34=487|49=INITIATOR|52=20260317-20:17:29.636|56=ACCEPTOR|31=185.0189|32=800|54=1|55=AAPL|60=20260317-20:17:29|487=0|571=681195c8|10=199|8=FIX.4.4|9=147|35=S|34=488|49=INITIATOR|52=20260317-20:17:29.636|56=ACCEPTOR|55=MSFT|60=20260317-20:17:29|117=5f1e01f2|132=416.3323|133=416.5405|134=1800|135=800|10=127|8=FIX.4.4|9=136|35=AE|34=489|49=INITIATOR|52=20260317-20:17:29.636|56=ACCEPTOR|31=416.6098|32=1500|54=1|55=MSFT|60=20260317-20:17:29|487=0|571=323e24ca|10=100|8=FIX.4.4|9=148|35=S|34=490|49=INITIATOR|52=20260317-20:17:29.636|56=ACCEPTOR|55=GOOGL|60=20260317-20:17:29|117=4767cf2f|132=173.621|133=173.7078|134=2000|135=2800|10=199|8=FIX.4.4|9=137|35=AE|34=491|49=INITIATOR|52=20260317-20:17:29.636|56=ACCEPTOR|31=173.6575|32=1900|54=2|55=GOOGL|60=20260317-20:17:29|487=0|571=0ec8666f|10=178|8=FIX.4.4|9=148|35=S|34=492|49=INITIATOR|52=20260317-20:17:29.636|56=ACCEPTOR|55=AMZN|60=20260317-20:17:29|117=3f9a8cb2|132=194.1347|133=194.2319|134=1100|135=2300|10=224|8=FIX.4.4|9=135|35=AE|34=493|49=INITIATOR|52=20260317-20:17:29.636|56=ACCEPTOR|31=194.185|32=1300|54=2|55=AMZN|60=20260317-20:17:29|487=0|571=7ced32e5|10=094|8=FIX.4.4|9=147|35=S|34=494|49=INITIATOR|52=20260317-20:17:29.636|56=ACCEPTOR|55=TSLA|60=20260317-20:17:29|117=5572a1df|132=174.2861|133=174.3733|134=2500|135=400|10=127|8=FIX.4.4|9=136|35=AE|34=495|49=INITIATOR|52=20260317-20:17:29.637|56=ACCEPTOR|31=174.3028|32=1100|54=1|55=TSLA|60=20260317-20:17:29|487=0|571=f736985a|10=053|8=FIX.4.4|9=147|35=S|34=496|49=INITIATOR|52=20260317-20:17:34.567|56=ACCEPTOR|55=AAPL|60=20260317-20:17:34|117=3626c23e|132=185.0421|133=185.1345|134=3000|135=100|10=037|8=FIX.4.4|9=136|35=AE|34=497|49=INITIATOR|52=20260317-20:17:34.568|56=ACCEPTOR|31=185.0246|32=1000|54=1|55=AAPL|60=20260317-20:17:34|487=0|571=ab42e4f1|10=104|8=FIX.4.4|9=147|35=S|34=498|49=INITIATOR|52=20260317-20:17:34.568|56=ACCEPTOR|55=MSFT|60=20260317-20:17:34|117=23359498|132=415.7742|133=415.9821|134=300|135=3000|10=255|8=FIX.4.4|9=134|35=AE|34=499|49=INITIATOR|52=20260317-20:17:34.568|56=ACCEPTOR|31=415.806|32=200|54=1|55=MSFT|60=20260317-20:17:34|487=0|571=ea275e2d|10=041|8=FIX.4.4|9=148|35=S|34=500|49=INITIATOR|52=20260317-20:17:34.568|56=ACCEPTOR|55=GOOGL|60=20260317-20:17:34|117=755fe0f0|132=173.2991|133=173.3859|134=2800|135=100|10=194|8=FIX.4.4|9=137|35=AE|34=501|49=INITIATOR|52=20260317-20:17:34.568|56=ACCEPTOR|31=173.2764|32=2000|54=1|55=GOOGL|60=20260317-20:17:34|487=0|571=a874b9a0|10=145|8=FIX.4.4|9=148|35=S|34=502|49=INITIATOR|52=20260317-20:17:34.568|56=ACCEPTOR|55=AMZN|60=20260317-20:17:34|117=617c55c2|132=193.8192|133=193.9161|134=3400|135=4100|10=124|8=FIX.4.4|9=135|35=AE|34=503|49=INITIATOR|52=20260317-20:17:34.568|56=ACCEPTOR|31=193.8233|32=200|54=1|55=AMZN|60=20260317-20:17:34|487=0|571=5720e349|10=193|8=FIX.4.4|9=147|35=S|34=504|49=INITIATOR|52=20260317-20:17:34.568|56=ACCEPTOR|55=TSLA|60=20260317-20:17:34|117=e3e5045c|132=174.085|133=174.1722|134=2700|135=1600|10=111|8=FIX.4.4|9=135|35=AE|34=505|49=INITIATOR|52=20260317-20:17:34.568|56=ACCEPTOR|31=174.1021|32=800|54=1|55=TSLA|60=20260317-20:17:34|487=0|571=0d82abc3|10=062|8=FIX.4.4|9=71|35=1|34=506|49=INITIATOR|52=20260317-20:17:35.706|56=ACCEPTOR|112=TEST|10=089|8=FIX.4.4|9=148|35=S|34=507|49=INITIATOR|52=20260317-20:17:36.569|56=ACCEPTOR|55=AAPL|60=20260317-20:17:36|117=0b7650a7|132=184.9873|133=185.0797|134=4300|135=4200|10=121|8=FIX.4.4|9=135|35=AE|34=508|49=INITIATOR|52=20260317-20:17:36.569|56=ACCEPTOR|31=185.0354|32=700|54=1|55=AAPL|60=20260317-20:17:36|487=0|571=ee97bbef|10=171|8=FIX.4.4|9=148|35=S|34=509|49=INITIATOR|52=20260317-20:17:36.569|56=ACCEPTOR|55=MSFT|60=20260317-20:17:36|117=b0356286|132=415.8933|133=416.1013|134=2800|135=1100|10=078|8=FIX.4.4|9=135|35=AE|34=510|49=INITIATOR|52=20260317-20:17:36.569|56=ACCEPTOR|31=416.122|32=1600|54=2|55=MSFT|60=20260317-20:17:36|487=0|571=6800376b|10=190|8=FIX.4.4|9=148|35=S|34=511|49=INITIATOR|52=20260317-20:17:36.570|56=ACCEPTOR|55=GOOGL|60=20260317-20:17:36|117=69d14e20|132=173.4948|133=173.5816|134=1700|135=200|10=140|8=FIX.4.4|9=137|35=AE|34=512|49=INITIATOR|52=20260317-20:17:36.570|56=ACCEPTOR|31=173.4902|32=1200|54=1|55=GOOGL|60=20260317-20:17:36|487=0|571=5a29070f|10=091|8=FIX.4.4|9=148|35=S|34=513|49=INITIATOR|52=20260317-20:17:36.570|56=ACCEPTOR|55=AMZN|60=20260317-20:17:36|117=85a12c2b|132=193.8775|133=193.9745|134=3200|135=4800|10=183|8=FIX.4.4|9=135|35=AE|34=514|49=INITIATOR|52=20260317-20:17:36.570|56=ACCEPTOR|31=193.8806|32=800|54=1|55=AMZN|60=20260317-20:17:36|487=0|571=c44d03d9|10=040|8=FIX.4.4|9=147|35=S|34=515|49=INITIATOR|52=20260317-20:17:36.570|56=ACCEPTOR|55=TSLA|60=20260317-20:17:36|117=2be06cb8|132=173.8717|133=173.9587|134=3800|135=400|10=180|8=FIX.4.4|9=135|35=AE|34=516|49=INITIATOR|52=20260317-20:17:36.570|56=ACCEPTOR|31=173.9523|32=100|54=2|55=TSLA|60=20260317-20:17:36|487=0|571=d12cd2ea|10=116|8=FIX.4.4|9=148|35=S|34=517|49=INITIATOR|52=20260317-20:17:38.570|56=ACCEPTOR|55=AAPL|60=20260317-20:17:38|117=c61745ff|132=185.1439|133=185.2365|134=2000|135=3100|10=153|8=FIX.4.4|9=135|35=AE|34=518|49=INITIATOR|52=20260317-20:17:38.571|56=ACCEPTOR|31=185.1367|32=400|54=2|55=AAPL|60=20260317-20:17:38|487=0|571=ca57e4ff|10=120|8=FIX.4.4|9=146|35=S|34=519|49=INITIATOR|52=20260317-20:17:38.571|56=ACCEPTOR|55=MSFT|60=20260317-20:17:38|117=0a1908d7|132=415.3875|133=415.5952|134=600|135=600|10=039|8=FIX.4.4|9=136|35=AE|34=520|49=INITIATOR|52=20260317-20:17:38.571|56=ACCEPTOR|31=415.3596|32=1200|54=2|55=MSFT|60=20260317-20:17:38|487=0|571=44c534d6|10=043|8=FIX.4.4|9=149|35=S|34=521|49=INITIATOR|52=20260317-20:17:38.571|56=ACCEPTOR|55=GOOGL|60=20260317-20:17:38|117=3f1a9a97|132=173.5088|133=173.5956|134=1400|135=4600|10=255|8=FIX.4.4|9=137|35=AE|34=522|49=INITIATOR|52=20260317-20:17:38.571|56=ACCEPTOR|31=173.4923|32=1900|54=1|55=GOOGL|60=20260317-20:17:38|487=0|571=e4a8551a|10=155|8=FIX.4.4|9=148|35=S|34=523|49=INITIATOR|52=20260317-20:17:38.571|56=ACCEPTOR|55=AMZN|60=20260317-20:17:38|117=3c8b8f58|132=194.0317|133=194.1287|134=3900|135=1700|10=190|8=FIX.4.4|9=136|35=AE|34=524|49=INITIATOR|52=20260317-20:17:38.572|56=ACCEPTOR|31=194.0226|32=2000|54=2|55=AMZN|60=20260317-20:17:38|487=0|571=7c88b1f9|10=093|8=FIX.4.4|9=148|35=S|34=525|49=INITIATOR|52=20260317-20:17:38.572|56=ACCEPTOR|55=TSLA|60=20260317-20:17:38|117=3938f5b8|132=173.5713|133=173.6581|134=2000|135=4500|10=136|8=FIX.4.4|9=135|35=AE|34=526|49=INITIATOR|52=20260317-20:17:38.572|56=ACCEPTOR|31=173.6167|32=400|54=2|55=TSLA|60=20260317-20:17:38|487=0|571=4f2f62f2|10=043|8=FIX.4.4|9=147|35=S|34=527|49=INITIATOR|52=20260317-20:17:40.572|56=ACCEPTOR|55=AAPL|60=20260317-20:17:40|117=a8f8e411|132=184.9077|133=185.0001|134=3800|135=700|10=091|8=FIX.4.4|9=133|35=AE|34=528|49=INITIATOR|52=20260317-20:17:40.572|56=ACCEPTOR|31=184.91|32=700|54=1|55=AAPL|60=20260317-20:17:40|487=0|571=ef9bdf6e|10=058|8=FIX.4.4|9=148|35=S|34=529|49=INITIATOR|52=20260317-20:17:40.573|56=ACCEPTOR|55=MSFT|60=20260317-20:17:40|117=e27584e6|132=415.9519|133=416.1599|134=1900|135=4700|10=152|8=FIX.4.4|9=135|35=AE|34=530|49=INITIATOR|52=20260317-20:17:40.573|56=ACCEPTOR|31=416.2372|32=100|54=1|55=MSFT|60=20260317-20:17:40|487=0|571=8c6572eb|10=025|8=FIX.4.4|9=149|35=S|34=531|49=INITIATOR|52=20260317-20:17:40.573|56=ACCEPTOR|55=GOOGL|60=20260317-20:17:40|117=4d5cec91|132=173.3767|133=173.4634|134=1100|135=1200|10=017|8=FIX.4.4|9=136|35=AE|34=532|49=INITIATOR|52=20260317-20:17:40.573|56=ACCEPTOR|31=173.3975|32=800|54=1|55=GOOGL|60=20260317-20:17:40|487=0|571=2519e915|10=010|8=FIX.4.4|9=148|35=S|34=533|49=INITIATOR|52=20260317-20:17:40.573|56=ACCEPTOR|55=AMZN|60=20260317-20:17:40|117=ee21ba85|132=193.9374|133=194.0344|134=4600|135=2700|10=216|8=FIX.4.4|9=136|35=AE|34=534|49=INITIATOR|52=20260317-20:17:40.573|56=ACCEPTOR|31=193.9177|32=1200|54=1|55=AMZN|60=20260317-20:17:40|487=0|571=06779a53|10=248|8=FIX.4.4|9=147|35=S|34=535|49=INITIATOR|52=20260317-20:17:40.573|56=ACCEPTOR|55=TSLA|60=20260317-20:17:40|117=33f5c220|132=173.7319|133=173.8188|134=2500|135=100|10=061|8=FIX.4.4|9=136|35=AE|34=536|49=INITIATOR|52=20260317-20:17:40.573|56=ACCEPTOR|31=173.8429|32=1700|54=1|55=TSLA|60=20260317-20:17:40|487=0|571=521cf031|10=025|8=FIX.4.4|9=147|35=S|34=537|49=INITIATOR|52=20260317-20:17:42.574|56=ACCEPTOR|55=AAPL|60=20260317-20:17:42|117=3a6067c7|132=184.982|133=185.0744|134=1500|135=1400|10=052|8=FIX.4.4|9=135|35=AE|34=538|49=INITIATOR|52=20260317-20:17:42.574|56=ACCEPTOR|31=184.9954|32=900|54=1|55=AAPL|60=20260317-20:17:42|487=0|571=d931e413|10=233|8=FIX.4.4|9=148|35=S|34=539|49=INITIATOR|52=20260317-20:17:42.574|56=ACCEPTOR|55=MSFT|60=20260317-20:17:42|117=022571cd|132=415.7744|133=415.9823|134=1600|135=2900|10=132|8=FIX.4.4|9=136|35=AE|34=540|49=INITIATOR|52=20260317-20:17:42.574|56=ACCEPTOR|31=415.8779|32=1200|54=1|55=MSFT|60=20260317-20:17:42|487=0|571=b056949e|10=052|8=FIX.4.4|9=149|35=S|34=541|49=INITIATOR|52=20260317-20:17:42.574|56=ACCEPTOR|55=GOOGL|60=20260317-20:17:42|117=b63e0343|132=173.5468|133=173.6336|134=1500|135=4900|10=190|8=FIX.4.4|9=136|35=AE|34=542|49=INITIATOR|52=20260317-20:17:42.575|56=ACCEPTOR|31=173.6009|32=400|54=2|55=GOOGL|60=20260317-20:17:42|487=0|571=8d1d5937|10=057|8=FIX.4.4|9=147|35=S|34=543|49=INITIATOR|52=20260317-20:17:42.575|56=ACCEPTOR|55=AMZN|60=20260317-20:17:42|117=6cdc11b5|132=193.6382|133=193.735|134=4300|135=2700|10=166|8=FIX.4.4|9=134|35=AE|34=544|49=INITIATOR|52=20260317-20:17:42.575|56=ACCEPTOR|31=193.627|32=600|54=1|55=AMZN|60=20260317-20:17:42|487=0|571=93ea6120|10=188|8=FIX.4.4|9=148|35=S|34=545|49=INITIATOR|52=20260317-20:17:42.575|56=ACCEPTOR|55=TSLA|60=20260317-20:17:42|117=ed97d495|132=173.8995|133=173.9865|134=4900|135=2800|10=217|8=FIX.4.4|9=135|35=AE|34=546|49=INITIATOR|52=20260317-20:17:42.575|56=ACCEPTOR|31=173.9772|32=700|54=1|55=TSLA|60=20260317-20:17:42|487=0|571=31ec04ed|10=084|8=FIX.4.4|9=148|35=S|34=547|49=INITIATOR|52=20260317-20:17:44.575|56=ACCEPTOR|55=AAPL|60=20260317-20:17:44|117=026bde7f|132=185.2902|133=185.3828|134=3700|135=4700|10=213|8=FIX.4.4|9=136|35=AE|34=548|49=INITIATOR|52=20260317-20:17:44.576|56=ACCEPTOR|31=185.3204|32=1400|54=2|55=AAPL|60=20260317-20:17:44|487=0|571=a8930401|10=217|8=FIX.4.4|9=148|35=S|34=549|49=INITIATOR|52=20260317-20:17:44.576|56=ACCEPTOR|55=MSFT|60=20260317-20:17:44|117=929761d7|132=415.8901|133=416.0981|134=2200|135=4500|10=100|8=FIX.4.4|9=136|35=AE|34=550|49=INITIATOR|52=20260317-20:17:44.576|56=ACCEPTOR|31=415.9137|32=1600|54=1|55=MSFT|60=20260317-20:17:44|487=0|571=85ab3070|10=038|8=FIX.4.4|9=146|35=S|34=551|49=INITIATOR|52=20260317-20:17:44.576|56=ACCEPTOR|55=GOOGL|60=20260317-20:17:44|117=d83a4b1d|132=173.76|133=173.8469|134=1600|135=700|10=141|8=FIX.4.4|9=136|35=AE|34=552|49=INITIATOR|52=20260317-20:17:44.576|56=ACCEPTOR|31=173.7469|32=400|54=2|55=GOOGL|60=20260317-20:17:44|487=0|571=d5951687|10=030|8=FIX.4.4|9=148|35=S|34=553|49=INITIATOR|52=20260317-20:17:44.576|56=ACCEPTOR|55=AMZN|60=20260317-20:17:44|117=299a051a|132=193.4314|133=193.5281|134=2700|135=1500|10=121|8=FIX.4.4|9=135|35=AE|34=554|49=INITIATOR|52=20260317-20:17:44.576|56=ACCEPTOR|31=193.4833|32=400|54=2|55=AMZN|60=20260317-20:17:44|487=0|571=0c06a6a9|10=036|8=FIX.4.4|9=146|35=S|34=555|49=INITIATOR|52=20260317-20:17:44.576|56=ACCEPTOR|55=TSLA|60=20260317-20:17:44|117=726c6e22|132=174.0753|133=174.1625|134=700|135=600|10=025|8=FIX.4.4|9=135|35=AE|34=556|49=INITIATOR|52=20260317-20:17:44.576|56=ACCEPTOR|31=174.1605|32=700|54=2|55=TSLA|60=20260317-20:17:44|487=0|571=c07f2965|10=252|8=FIX.4.4|9=147|35=S|34=557|49=INITIATOR|52=20260317-20:17:46.577|56=ACCEPTOR|55=AAPL|60=20260317-20:17:46|117=775a845c|132=185.0614|133=185.154|134=4000|135=2100|10=056|8=FIX.4.4|9=134|35=AE|34=558|49=INITIATOR|52=20260317-20:17:46.577|56=ACCEPTOR|31=185.096|32=500|54=1|55=AAPL|60=20260317-20:17:46|487=0|571=2c2718c6|10=184|8=FIX.4.4|9=146|35=S|34=559|49=INITIATOR|52=20260317-20:17:46.577|56=ACCEPTOR|55=MSFT|60=20260317-20:17:46|117=1b81e0ab|132=415.529|133=415.7368|134=1100|135=200|10=121|8=FIX.4.4|9=135|35=AE|34=560|49=INITIATOR|52=20260317-20:17:46.577|56=ACCEPTOR|31=415.6101|32=100|54=2|55=MSFT|60=20260317-20:17:46|487=0|571=73917c7f|10=251|8=FIX.4.4|9=148|35=S|34=561|49=INITIATOR|52=20260317-20:17:46.578|56=ACCEPTOR|55=GOOGL|60=20260317-20:17:46|117=ad971d89|132=173.7574|133=173.8443|134=700|135=5000|10=214|8=FIX.4.4|9=136|35=AE|34=562|49=INITIATOR|52=20260317-20:17:46.578|56=ACCEPTOR|31=173.7221|32=800|54=1|55=GOOGL|60=20260317-20:17:46|487=0|571=ddd4f032|10=152|8=FIX.4.4|9=148|35=S|34=563|49=INITIATOR|52=20260317-20:17:46.578|56=ACCEPTOR|55=AMZN|60=20260317-20:17:46|117=f7543f67|132=193.7888|133=193.8858|134=3700|135=4100|10=176|8=FIX.4.4|9=135|35=AE|34=564|49=INITIATOR|52=20260317-20:17:46.578|56=ACCEPTOR|31=193.7489|32=500|54=2|55=AMZN|60=20260317-20:17:46|487=0|571=19dc6aeb|10=155|8=FIX.4.4|9=148|35=S|34=565|49=INITIATOR|52=20260317-20:17:46.578|56=ACCEPTOR|55=TSLA|60=20260317-20:17:46|117=19d89a52|132=174.4001|133=174.4873|134=4900|135=1100|10=136|8=FIX.4.4|9=136|35=AE|34=566|49=INITIATOR|52=20260317-20:17:46.578|56=ACCEPTOR|31=174.4938|32=1000|54=2|55=TSLA|60=20260317-20:17:46|487=0|571=a786e515|10=058|8=FIX.4.4|9=147|35=S|34=567|49=INITIATOR|52=20260317-20:17:48.578|56=ACCEPTOR|55=AAPL|60=20260317-20:17:48|117=b6fa5ad6|132=185.2006|133=185.2932|134=500|135=4500|10=207|8=FIX.4.4|9=135|35=AE|34=568|49=INITIATOR|52=20260317-20:17:48.579|56=ACCEPTOR|31=185.215|32=2000|54=1|55=AAPL|60=20260317-20:17:48|487=0|571=37f0dd6d|10=072|8=FIX.4.4|9=148|35=S|34=569|49=INITIATOR|52=20260317-20:17:48.579|56=ACCEPTOR|55=MSFT|60=20260317-20:17:48|117=5eaad954|132=415.9777|133=416.1857|134=2200|135=2200|10=000|8=FIX.4.4|9=135|35=AE|34=570|49=INITIATOR|52=20260317-20:17:48.579|56=ACCEPTOR|31=415.9092|32=700|54=2|55=MSFT|60=20260317-20:17:48|487=0|571=061ca792|10=006|8=FIX.4.4|9=148|35=S|34=571|49=INITIATOR|52=20260317-20:17:48.579|56=ACCEPTOR|55=GOOGL|60=20260317-20:17:48|117=1ca0ed96|132=173.9044|133=173.9914|134=3800|135=700|10=002|8=FIX.4.4|9=137|35=AE|34=572|49=INITIATOR|52=20260317-20:17:48.579|56=ACCEPTOR|31=173.9521|32=1200|54=2|55=GOOGL|60=20260317-20:17:48|487=0|571=691bb4bc|10=210|8=FIX.4.4|9=148|35=S|34=573|49=INITIATOR|52=20260317-20:17:48.579|56=ACCEPTOR|55=AMZN|60=20260317-20:17:48|117=d5c0ec48|132=193.7391|133=193.8361|134=2800|135=3700|10=249|8=FIX.4.4|9=136|35=AE|34=574|49=INITIATOR|52=20260317-20:17:48.579|56=ACCEPTOR|31=193.7868|32=1200|54=2|55=AMZN|60=20260317-20:17:48|487=0|571=2feb7d69|10=171|8=FIX.4.4|9=146|35=S|34=575|49=INITIATOR|52=20260317-20:17:48.580|56=ACCEPTOR|55=TSLA|60=20260317-20:17:48|117=affbfa08|132=174.523|133=174.6104|134=3600|135=800|10=215|8=FIX.4.4|9=135|35=AE|34=576|49=INITIATOR|52=20260317-20:17:48.580|56=ACCEPTOR|31=174.555|32=1100|54=2|55=TSLA|60=20260317-20:17:48|487=0|571=f9c65bb0|10=090|8=FIX.4.4|9=148|35=S|34=577|49=INITIATOR|52=20260317-20:17:50.580|56=ACCEPTOR|55=AAPL|60=20260317-20:17:50|117=fd7ed313|132=185.5026|133=185.5954|134=3500|135=2300|10=201|8=FIX.4.4|9=134|35=AE|34=578|49=INITIATOR|52=20260317-20:17:50.580|56=ACCEPTOR|31=185.547|32=300|54=2|55=AAPL|60=20260317-20:17:50|487=0|571=089a7e31|10=172|8=FIX.4.4|9=147|35=S|34=579|49=INITIATOR|52=20260317-20:17:50.581|56=ACCEPTOR|55=MSFT|60=20260317-20:17:50|117=5ee53ceb|132=415.524|133=415.7318|134=2000|135=3300|10=212|8=FIX.4.4|9=136|35=AE|34=580|49=INITIATOR|52=20260317-20:17:50.581|56=ACCEPTOR|31=415.5933|32=2000|54=1|55=MSFT|60=20260317-20:17:50|487=0|571=30a0c04c|10=062|8=FIX.4.4|9=148|35=S|34=581|49=INITIATOR|52=20260317-20:17:50.581|56=ACCEPTOR|55=GOOGL|60=20260317-20:17:50|117=f0be022a|132=174.1767|133=174.2639|134=400|135=4900|10=229|8=FIX.4.4|9=137|35=AE|34=582|49=INITIATOR|52=20260317-20:17:50.581|56=ACCEPTOR|31=174.2465|32=1700|54=2|55=GOOGL|60=20260317-20:17:50|487=0|571=e7089cc5|10=159|8=FIX.4.4|9=146|35=S|34=583|49=INITIATOR|52=20260317-20:17:50.581|56=ACCEPTOR|55=AMZN|60=20260317-20:17:50|117=4ee0a83a|132=193.5736|133=193.6704|134=200|135=200|10=110|8=FIX.4.4|9=136|35=AE|34=584|49=INITIATOR|52=20260317-20:17:50.581|56=ACCEPTOR|31=193.5379|32=1200|54=1|55=AMZN|60=20260317-20:17:50|487=0|571=b3c77b7a|10=136|8=FIX.4.4|9=147|35=S|34=585|49=INITIATOR|52=20260317-20:17:50.581|56=ACCEPTOR|55=TSLA|60=20260317-20:17:50|117=f7a5abc8|132=174.4208|133=174.508|134=2000|135=1900|10=208|8=FIX.4.4|9=136|35=AE|34=586|49=INITIATOR|52=20260317-20:17:50.581|56=ACCEPTOR|31=174.5097|32=1500|54=2|55=TSLA|60=20260317-20:17:50|487=0|571=031ca60d|10=074|8=FIX.4.4|9=148|35=S|34=587|49=INITIATOR|52=20260317-20:17:52.582|56=ACCEPTOR|55=AAPL|60=20260317-20:17:52|117=ce7385ab|132=185.6193|133=185.7121|134=2000|135=1300|10=196|8=FIX.4.4|9=135|35=AE|34=588|49=INITIATOR|52=20260317-20:17:52.582|56=ACCEPTOR|31=185.6315|32=400|54=1|55=AAPL|60=20260317-20:17:52|487=0|571=8b56e53f|10=025|8=FIX.4.4|9=148|35=S|34=589|49=INITIATOR|52=20260317-20:17:52.582|56=ACCEPTOR|55=MSFT|60=20260317-20:17:52|117=0ac261ab|132=414.9499|133=415.1574|134=4400|135=4500|10=228|8=FIX.4.4|9=135|35=AE|34=590|49=INITIATOR|52=20260317-20:17:52.582|56=ACCEPTOR|31=415.1211|32=400|54=1|55=MSFT|60=20260317-20:17:52|487=0|571=4fb79986|10=251|8=FIX.4.4|9=149|35=S|34=591|49=INITIATOR|52=20260317-20:17:52.583|56=ACCEPTOR|55=GOOGL|60=20260317-20:17:52|117=c4c1fa45|132=173.8534|133=173.9403|134=3300|135=4000|10=024|8=FIX.4.4|9=136|35=AE|34=592|49=INITIATOR|52=20260317-20:17:52.583|56=ACCEPTOR|31=173.8315|32=900|54=1|55=GOOGL|60=20260317-20:17:52|487=0|571=e564e62a|10=110|8=FIX.4.4|9=148|35=S|34=593|49=INITIATOR|52=20260317-20:17:52.583|56=ACCEPTOR|55=AMZN|60=20260317-20:17:52|117=a283b15e|132=193.8941|133=193.9911|134=4400|135=2000|10=177|8=FIX.4.4|9=136|35=AE|34=594|49=INITIATOR|52=20260317-20:17:52.583|56=ACCEPTOR|31=193.8808|32=1300|54=2|55=AMZN|60=20260317-20:17:52|487=0|571=c066a718|10=049|8=FIX.4.4|9=147|35=S|34=595|49=INITIATOR|52=20260317-20:17:52.583|56=ACCEPTOR|55=TSLA|60=20260317-20:17:52|117=061ae72e|132=174.4571|133=174.5445|134=800|135=4000|10=121|8=FIX.4.4|9=136|35=AE|34=596|49=INITIATOR|52=20260317-20:17:52.583|56=ACCEPTOR|31=174.4208|32=1600|54=1|55=TSLA|60=20260317-20:17:52|487=0|571=8de4922f|10=096|8=FIX.4.4|9=147|35=S|34=597|49=INITIATOR|52=20260317-20:17:54.583|56=ACCEPTOR|55=AAPL|60=20260317-20:17:54|117=07285ffa|132=185.5841|133=185.6769|134=3800|135=100|10=128|8=FIX.4.4|9=135|35=AE|34=598|49=INITIATOR|52=20260317-20:17:54.584|56=ACCEPTOR|31=185.6721|32=400|54=1|55=AAPL|60=20260317-20:17:54|487=0|571=ca2f2270|10=016|8=FIX.4.4|9=147|35=S|34=599|49=INITIATOR|52=20260317-20:17:54.584|56=ACCEPTOR|55=MSFT|60=20260317-20:17:54|117=74644d6f|132=414.3099|133=414.5171|134=4300|135=700|10=098|8=FIX.4.4|9=135|35=AE|34=600|49=INITIATOR|52=20260317-20:17:54.584|56=ACCEPTOR|31=414.2845|32=400|54=1|55=MSFT|60=20260317-20:17:54|487=0|571=f58fc60c|10=088|8=FIX.4.4|9=149|35=S|34=601|49=INITIATOR|52=20260317-20:17:54.584|56=ACCEPTOR|55=GOOGL|60=20260317-20:17:54|117=6244e04a|132=174.1096|133=174.1968|134=3500|135=3000|10=187|8=FIX.4.4|9=137|35=AE|34=602|49=INITIATOR|52=20260317-20:17:54.584|56=ACCEPTOR|31=174.1361|32=1200|54=1|55=GOOGL|60=20260317-20:17:54|487=0|571=eb0613bf|10=184|8=FIX.4.4|9=148|35=S|34=603|49=INITIATOR|52=20260317-20:17:54.584|56=ACCEPTOR|55=AMZN|60=20260317-20:17:54|117=715f13bf|132=194.2197|133=194.3168|134=2300|135=5000|10=175|8=FIX.4.4|9=135|35=AE|34=604|49=INITIATOR|52=20260317-20:17:54.584|56=ACCEPTOR|31=194.2887|32=700|54=2|55=AMZN|60=20260317-20:17:54|487=0|571=2bc778ab|10=098|8=FIX.4.4|9=147|35=S|34=605|49=INITIATOR|52=20260317-20:17:54.585|56=ACCEPTOR|55=TSLA|60=20260317-20:17:54|117=d5679b45|132=174.3695|133=174.4567|134=1800|135=800|10=101|8=FIX.4.4|9=135|35=AE|34=606|49=INITIATOR|52=20260317-20:17:54.585|56=ACCEPTOR|31=174.4735|32=700|54=1|55=TSLA|60=20260317-20:17:54|487=0|571=93dba259|10=045|8=FIX.4.4|9=147|35=S|34=607|49=INITIATOR|52=20260317-20:17:56.585|56=ACCEPTOR|55=AAPL|60=20260317-20:17:56|117=79119e96|132=185.2796|133=185.3722|134=2700|135=500|10=036|8=FIX.4.4|9=136|35=AE|34=608|49=INITIATOR|52=20260317-20:17:56.585|56=ACCEPTOR|31=185.2504|32=1000|54=2|55=AAPL|60=20260317-20:17:56|487=0|571=c63a1ae3|10=103|8=FIX.4.4|9=148|35=S|34=609|49=INITIATOR|52=20260317-20:17:56.585|56=ACCEPTOR|55=MSFT|60=20260317-20:17:56|117=7bfbdad0|132=414.6323|133=414.8397|134=1700|135=5000|10=070|8=FIX.4.4|9=135|35=AE|34=610|49=INITIATOR|52=20260317-20:17:56.585|56=ACCEPTOR|31=414.7662|32=300|54=1|55=MSFT|60=20260317-20:17:56|487=0|571=9228fd02|10=251|8=FIX.4.4|9=149|35=S|34=611|49=INITIATOR|52=20260317-20:17:56.586|56=ACCEPTOR|55=GOOGL|60=20260317-20:17:56|117=ca2d7a95|132=174.3702|133=174.4574|134=1900|135=3800|10=042|8=FIX.4.4|9=136|35=AE|34=612|49=INITIATOR|52=20260317-20:17:56.586|56=ACCEPTOR|31=174.403|32=1500|54=2|55=GOOGL|60=20260317-20:17:56|487=0|571=218df3aa|10=143|8=FIX.4.4|9=146|35=S|34=613|49=INITIATOR|52=20260317-20:17:56.586|56=ACCEPTOR|55=AMZN|60=20260317-20:17:56|117=9f3e6966|132=193.998|133=194.095|134=5000|135=1100|10=054|8=FIX.4.4|9=135|35=AE|34=614|49=INITIATOR|52=20260317-20:17:56.586|56=ACCEPTOR|31=194.0126|32=700|54=1|55=AMZN|60=20260317-20:17:56|487=0|571=7ee560ca|10=088|8=FIX.4.4|9=147|35=S|34=615|49=INITIATOR|52=20260317-20:17:56.586|56=ACCEPTOR|55=TSLA|60=20260317-20:17:56|117=beee9caf|132=174.5445|133=174.6319|134=300|135=3400|10=070|8=FIX.4.4|9=135|35=AE|34=616|49=INITIATOR|52=20260317-20:17:56.586|56=ACCEPTOR|31=174.6439|32=600|54=2|55=TSLA|60=20260317-20:17:56|487=0|571=a76281ff|10=056|8=FIX.4.4|9=146|35=S|34=617|49=INITIATOR|52=20260317-20:17:58.586|56=ACCEPTOR|55=AAPL|60=20260317-20:17:58|117=eb683a8a|132=185.3594|133=185.452|134=500|135=3600|10=118|8=FIX.4.4|9=135|35=AE|34=618|49=INITIATOR|52=20260317-20:17:58.587|56=ACCEPTOR|31=185.4904|32=900|54=2|55=AAPL|60=20260317-20:17:58|487=0|571=b57b511b|10=029|8=FIX.4.4|9=148|35=S|34=619|49=INITIATOR|52=20260317-20:17:58.587|56=ACCEPTOR|55=MSFT|60=20260317-20:17:58|117=cc908312|132=415.1187|133=415.3263|134=3200|135=1800|10=137|8=FIX.4.4|9=135|35=AE|34=620|49=INITIATOR|52=20260317-20:17:58.587|56=ACCEPTOR|31=415.1284|32=600|54=1|55=MSFT|60=20260317-20:17:58|487=0|571=fcb4afc7|10=191|8=FIX.4.4|9=148|35=S|34=621|49=INITIATOR|52=20260317-20:17:58.587|56=ACCEPTOR|55=GOOGL|60=20260317-20:17:58|117=1d0b9e9f|132=174.2658|133=174.353|134=4800|135=3300|10=000|8=FIX.4.4|9=135|35=AE|34=622|49=INITIATOR|52=20260317-20:17:58.587|56=ACCEPTOR|31=174.313|32=400|54=1|55=GOOGL|60=20260317-20:17:58|487=0|571=7d23517f|10=010|8=FIX.4.4|9=148|35=S|34=623|49=INITIATOR|52=20260317-20:17:58.587|56=ACCEPTOR|55=AMZN|60=20260317-20:17:58|117=69b0ea90|132=193.9476|133=194.0446|134=2900|135=1100|10=194|8=FIX.4.4|9=136|35=