8=FIX.4.4|9=72|35=A|34=1|49=ACCEPTOR|52=20260317-20:15:26.592|56=INITIATOR|98=0|108=30|10=008|8=FIX.4.4|9=69|35=2|34=2|49=ACCEPTOR|52=20260317-20:15:26.592|56=INITIATOR|7=1|16=0|10=098|8=FIX.4.4|9=72|35=A|34=3|49=ACCEPTOR|52=20260317-20:16:59.616|56=INITIATOR|98=0|108=30|10=014|8=FIX.4.4|9=70|35=2|34=4|49=ACCEPTOR|52=20260317-20:16:59.616|56=INITIATOR|7=33|16=0|10=149|8=FIX.4.4|9=72|35=A|34=5|49=ACCEPTOR|52=20260317-20:22:03.480|56=INITIATOR|98=0|108=30|10=001|8=FIX.4.4|9=70|35=2|34=6|49=ACCEPTOR|52=20260317-20:22:03.480|56=INITIATOR|7=33|16=0|10=136|8=FIX.4.4|9=60|35=0|34=7|49=ACCEPTOR|52=20260317-20:22:33.204|56=INITIATOR|10=211|8=FIX.4.4|9=60|35=0|34=8|49=ACCEPTOR|52=20260317-20:23:03.329|56=INITIATOR|10=218|8=FIX.4.4|9=72|35=A|34=9|49=ACCEPTOR|52=20260317-20:30:16.955|56=INITIATOR|98=0|108=30|10=015|8=FIX.4.4|9=73|35=2|34=10|49=ACCEPTOR|52=20260317-20:30:16.955|56=INITIATOR|7=1015|16=0|10=033|8=FIX.4.4|9=61|35=0|34=11|49=ACCEPTOR|52=20260317-20:30:46.827|56=INITIATOR|10=013|8=FIX.4.4|9=61|35=0|34=12|49=ACCEPTOR|52=20260317-20:31:16.549|56=INITIATOR|10=013|8=FIX.4.4|9=61|35=0|34=13|49=ACCEPTOR|52=20260317-20:31:46.560|56=INITIATOR|10=010|8=FIX.4.4|9=73|35=A|34=14|49=ACCEPTOR|52=20260317-20:41:45.225|56=INITIATOR|98=0|108=30|10=054|8=FIX.4.4|9=73|35=2|34=15|49=ACCEPTOR|52=20260317-20:41:45.226|56=INITIATOR|7=1537|16=0|10=042|8=FIX.4.4|9=61|35=0|34=16|49=ACCEPTOR|52=20260317-20:42:15.115|56=INITIATOR|10=007|8=FIX.4.4|9=61|35=0|34=17|49=ACCEPTOR|52=20260317-20:42:45.144|56=INITIATOR|10=013|8=FIX.4.4|9=61|35=0|34=18|49=ACCEPTOR|52=20260317-20:43:15.633|56=INITIATOR|10=015|8=FIX.4.4|9=73|35=A|34=19|49=ACCEPTOR|52=20260317-20:44:08.312|56=INITIATOR|98=0|108=30|10=058|8=FIX.4.4|9=73|35=2|34=20|49=ACCEPTOR|52=20260317-20:44:08.312|56=INITIATOR|7=2079|16=0|10=038|8=FIX.4.4|9=61|35=0|34=21|49=ACCEPTOR|52=20260317-20:44:39.581|56=INITIATOR|10=018|8=FIX.4.4|9=73|35=A|34=22|49=ACCEPTOR|52=20260317-20:45:37.876|56=INITIATOR|98=0|108=30|10=070|8=FIX.4.4|9=73|35=2|34=23|49=ACCEPTOR|52=20260317-20:45:37.876|56=INITIATOR|7=2321|16=0|10=049|8=FIX.4.4|9=61|35=0|34=24|49=ACCEPTOR|52=20260317-20:46:07.731|56=INITIATOR|10=015|8=FIX.4.4|9=61|35=0|34=25|49=ACCEPTOR|52=20260317-20:46:37.474|56=INITIATOR|10=023|8=FIX.4.4|9=61|35=0|34=26|49=ACCEPTOR|52=20260317-20:47:07.513|56=INITIATOR|10=016|8=FIX.4.4|9=73|35=A|34=27|49=ACCEPTOR|52=20260317-20:47:54.480|56=INITIATOR|98=0|108=30|10=067|8=FIX.4.4|9=73|35=2|34=28|49=ACCEPTOR|52=20260317-20:47:54.481|56=INITIATOR|7=2844|16=0|10=057|8=FIX.4.4|9=61|35=0|34=29|49=ACCEPTOR|52=20260317-20:48:24.375|56=INITIATOR|10=025|8=FIX.4.4|9=61|35=0|34=30|49=ACCEPTOR|52=20260317-20:48:54.112|56=INITIATOR|10=009|8=FIX.4.4|9=61|35=0|34=31|49=ACCEPTOR|52=20260317-20:49:24.175|56=INITIATOR|10=017|8=FIX.4.4|9=61|35=0|34=32|49=ACCEPTOR|52=20260317-20:49:56.325|56=INITIATOR|10=020|8=FIX.4.4|9=73|35=A|34=33|49=ACCEPTOR|52=20260317-20:51:21.513|56=INITIATOR|98=0|108=30|10=050|8=FIX.4.4|9=73|35=2|34=34|49=ACCEPTOR|52=20260317-20:51:21.514|56=INITIATOR|7=3476|16=0|10=042|8=FIX.4.4|9=61|35=0|34=35|49=ACCEPTOR|52=20260317-20:51:51.422|56=INITIATOR|10=009|8=FIX.4.4|9=61|35=0|34=36|49=ACCEPTOR|52=20260317-20:52:21.159|56=INITIATOR|10=015|8=FIX.4.4|9=61|35=0|34=37|49=ACCEPTOR|52=20260317-20:52:51.949|56=INITIATOR|10=026|8=FIX.4.4|9=73|35=A|34=38|49=ACCEPTOR|52=20260317-20:53:54.777|56=INITIATOR|98=0|108=30|10=075|8=FIX.4.4|9=73|35=2|34=39|49=ACCEPTOR|52=20260317-20:53:54.777|56=INITIATOR|7=4018|16=0|10=059|8=FIX.4.4|9=61|35=0|34=40|49=ACCEPTOR|52=20260317-20:54:24.639|56=INITIATOR|10=018|8=FIX.4.4|9=61|35=0|34=41|49=ACCEPTOR|52=20260317-20:54:54.387|56=INITIATOR|10=022|8=FIX.4.4|9=61|35=0|34=42|49=ACCEPTOR|52=20260317-20:55:24.430|56=INITIATOR|10=010|8=FIX.4.4|9=61|35=0|34=43|49=ACCEPTOR|52=20260317-20:55:54.045|56=INITIATOR|10=016|8=FIX.4.4|9=61|35=0|34=44|49=ACCEPTOR|52=20260317-20:56:24.196|56=INITIATOR|10=022|8=FIX.4.4|9=61|35=0|34=45|49=ACCEPTOR|52=20260317-20:56:54.145|56=INITIATOR|10=020|8=FIX.4.4|9=73|35=A|34=46|49=ACCEPTOR|52=20260317-20:57:47.891|56=INITIATOR|98=0|108=30|10=077|8=FIX.4.4|9=73|35=2|34=47|49=ACCEPTOR|52=20260317-20:57:47.891|56=INITIATOR|7=4920|16=0|10=063|8=FIX.4.4|9=61|35=0|34=48|49=ACCEPTOR|52=20260317-20:58:17.798|56=INITIATOR|10=038|8=FIX.4.4|9=61|35=0|34=49|49=ACCEPTOR|52=20260317-20:58:47.531|56=INITIATOR|10=027|8=FIX.4.4|9=61|35=0|34=50|49=ACCEPTOR|52=20260317-20:59:19.573|56=INITIATOR|10=025|8=FIX.4.4|9=61|35=0|34=51|49=ACCEPTOR|52=20260317-20:59:49.520|56=INITIATOR|10=021|8=FIX.4.4|9=73|35=A|34=52|49=ACCEPTOR|52=20260317-21:00:52.220|56=INITIATOR|98=0|108=30|10=045|8=FIX.4.4|9=73|35=2|34=53|49=ACCEPTOR|52=20260317-21:00:52.220|56=INITIATOR|7=5522|16=0|10=030|8=FIX.4.4|9=61|35=0|34=54|49=ACCEPTOR|52=20260317-21:01:22.089|56=INITIATOR|10=013|8=FIX.4.4|9=73|35=A|34=55|49=ACCEPTOR|52=20260317-21:05:11.991|56=INITIATOR|98=0|108=30|10=063|8=FIX.4.4|9=73|35=2|34=56|49=ACCEPTOR|52=20260317-21:05:11.991|56=INITIATOR|7=5754|16=0|10=055|8=FIX.4.4|9=61|35=0|34=57|49=ACCEPTOR|52=20260317-21:05:41.856|56=INITIATOR|10=023|8=FIX.4.4|9=61|35=0|34=58|49=ACCEPTOR|52=20260317-21:06:11.824|56=INITIATOR|10=017|8=FIX.4.4|9=61|35=0|34=59|49=ACCEPTOR|52=20260317-21:06:41.470|56=INITIATOR|10=018|8=FIX.4.4|9=61|35=0|34=60|49=ACCEPTOR|52=20260317-21:07:11.568|56=INITIATOR|10=016|8=FIX.4.4|9=61|35=0|34=61|49=ACCEPTOR|52=20260317-21:07:41.098|56=INITIATOR|10=018|8=FIX.4.4|9=61|35=0|34=62|49=ACCEPTOR|52=20260317-21:08:11.347|56=INITIATOR|10=014|8=FIX.4.4|9=73|35=A|34=63|49=ACCEPTOR|52=20260317-21:09:29.114|56=INITIATOR|98=0|108=30|10=062|8=FIX.4.4|9=73|35=2|34=64|49=ACCEPTOR|52=20260317-21:09:29.114|56=INITIATOR|7=6626|16=0|10=053|8=FIX.4.4|9=73|35=A|34=65|49=ACCEPTOR|52=20260317-21:10:14.321|56=INITIATOR|98=0|108=30|10=050|8=FIX.4.4|9=73|35=2|34=66|49=ACCEPTOR|52=20260317-21:10:14.328|56=INITIATOR|7=6698|16=0|10=057|8=FIX.4.4|9=61|35=0|34=67|49=ACCEPTOR|52=20260317-21:10:44.820|56=INITIATOR|10=014|8=FIX.4.4|9=61|35=0|34=68|49=ACCEPTOR|52=20260317-21:11:14.354|56=INITIATOR|10=015|8=FIX.4.4|9=61|35=0|34=69|49=ACCEPTOR|52=20260317-21:11:44.716|56=INITIATOR|10=021|8=FIX.4.4|9=61|35=0|34=70|49=ACCEPTOR|52=20260317-21:12:16.165|56=INITIATOR|10=011|8=FIX.4.4|9=61|35=0|34=71|49=ACCEPTOR|52=20260317-21:12:46.035|56=INITIATOR|10=011|8=FIX.4.4|9=61|35=0|34=72|49=ACCEPTOR|52=20260317-21:13:16.058|56=INITIATOR|10=015|8=FIX.4.4|9=61|35=0|34=73|49=ACCEPTOR|52=20260317-21:13:46.482|56=INITIATOR|10=020|8=FIX.4.4|9=61|35=0|34=74|49=ACCEPTOR|52=20260317-21:14:16.403|56=INITIATOR|10=012|8=FIX.4.4|9=61|35=0|34=75|49=ACCEPTOR|52=20260317-21:14:46.254|56=INITIATOR|10=020|8=FIX.4.4|9=61|35=0|34=76|49=ACCEPTOR|52=20260317-21:15:16.173|56=INITIATOR|10=019|8=FIX.4.4|9=61|35=0|34=77|49=ACCEPTOR|52=20260317-21:15:46.156|56=INITIATOR|10=024|8=FIX.4.4|9=61|35=0|34=78|49=ACCEPTOR|52=20260317-21:16:16.097|56=INITIATOR|10=027|8=FIX.4.4|9=61|35=0|34=79|49=ACCEPTOR|52=20260317-21:16:46.018|56=INITIATOR|10=024|8=FIX.4.4|9=61|35=0|34=80|49=ACCEPTOR|52=20260317-21:17:16.584|56=INITIATOR|10=022|8=FIX.4.4|9=61|35=0|34=81|49=ACCEPTOR|52=20260317-21:17:46.126|56=INITIATOR|10=018|8=FIX.4.4|9=61|35=0|34=82|49=ACCEPTOR|52=20260317-21:18:16.500|56=INITIATOR|10=013|8=FIX.4.4|9=61|35=0|34=83|49=ACCEPTOR|52=20260317-21:18:49.927|56=INITIATOR|10=033|8=FIX.4.4|9=61|35=0|34=84|49=ACCEPTOR|52=20260317-21:19:19.157|56=INITIATOR|10=027|8=FIX.4.4|9=61|35=0|34=85|49=ACCEPTOR|52=20260317-21:19:49.278|56=INITIATOR|10=035|8=FIX.4.4|9=61|35=0|34=86|49=ACCEPTOR|52=20260317-21:20:19.238|56=INITIATOR|10=021|8=FIX.4.4|9=61|35=0|34=87|49=ACCEPTOR|52=20260317-21:20:49.070|56=INITIATOR|10=019|8=FIX.4.4|9=61|35=0|34=88|49=ACCEPTOR|52=20260317-21:21:19.326|56=INITIATOR|10=022|8=FIX.4.4|9=61|35=0|34=89|49=ACCEPTOR|52=20260317-21:21:49.116|56=INITIATOR|10=023|8=FIX.4.4|9=61|35=0|34=90|49=ACCEPTOR|52=20260317-21:22:19.180|56=INITIATOR|10=014|8=FIX.4.4|9=61|35=0|34=91|49=ACCEPTOR|52=20260317-21:22:49.085|56=INITIATOR|10=022|8=FIX.4.4|9=61|35=0|34=92|49=ACCEPTOR|52=20260317-21:23:19.012|56=INITIATOR|10=011|8=FIX.4.4|9=61|35=0|34=93|49=ACCEPTOR|52=20260317-21:23:49.324|56=INITIATOR|10=021|8=FIX.4.4|9=61|35=0|34=94|49=ACCEPTOR|52=20260317-21:24:19.010|56=INITIATOR|10=012|8=FIX.4.4|9=61|35=0|34=95|49=ACCEPTOR|52=20260317-21:24:49.458|56=INITIATOR|10=032|8=FIX.4.4|9=61|35=0|34=96|49=ACCEPTOR|52=20260317-21:25:19.407|56=INITIATOR|10=025|8=FIX.4.4|9=61|35=0|34=97|49=ACCEPTOR|52=20260317-21:25:49.612|56=INITIATOR|10=027|8=FIX.4.4|9=61|35=0|34=98|49=ACCEPTOR|52=20260317-21:26:19.035|56=INITIATOR|10=025|8=FIX.4.4|9=61|35=0|34=99|49=ACCEPTOR|52=20260317-21:26:49.020|56=INITIATOR|10=023|8=FIX.4.4|9=62|35=0|34=100|49=ACCEPTOR|52=20260317-21:27:19.102|56=INITIATOR|10=054|8=FIX.4.4|9=62|35=0|34=101|49=ACCEPTOR|52=20260317-21:27:49.051|56=INITIATOR|10=061|8=FIX.4.4|9=62|35=0|34=102|49=ACCEPTOR|52=20260317-21:28:19.264|56=INITIATOR|10=066|8=FIX.4.4|9=62|35=0|34=103|49=ACCEPTOR|52=20260317-21:28:49.124|56=INITIATOR|10=065|8=FIX.4.4|9=62|35=0|34=104|49=ACCEPTOR|52=20260317-21:29:19.074|56=INITIATOR|10=068|8=FIX.4.4|9=62|35=0|34=105|49=ACCEPTOR|52=20260317-21:29:49.001|56=INITIATOR|10=062|8=FIX.4.4|9=62|35=0|34=106|49=ACCEPTOR|52=20260317-21:30:19.055|56=INITIATOR|10=061|8=FIX.4.4|9=62|35=0|34=107|49=ACCEPTOR|52=20260317-21:30:49.620|56=INITIATOR|10=063|8=FIX.4.4|9=62|35=0|34=108|49=ACCEPTOR|52=20260317-21:31:22.412|56=INITIATOR|10=055|8=FIX.4.4|9=62|35=0|34=109|49=ACCEPTOR|52=20260317-21:31:52.439|56=INITIATOR|10=068|8=FIX.4.4|9=62|35=0|34=110|49=ACCEPTOR|52=20260317-21:32:22.049|56=INITIATOR|10=055|8=FIX.4.4|9=74|35=A|34=111|49=ACCEPTOR|52=20260317-21:33:58.156|56=INITIATOR|98=0|108=30|10=110|8=FIX.4.4|9=75|35=2|34=112|49=ACCEPTOR|52=20260317-21:33:58.156|56=INITIATOR|7=12750|16=0|10=145|8=FIX.4.4|9=62|35=0|34=113|49=ACCEPTOR|52=20260317-21:34:28.728|56=INITIATOR|10=070|8=FIX.4.4|9=62|35=0|34=114|49=ACCEPTOR|52=20260317-21:34:58.244|56=INITIATOR|10=067|8=FIX.4.4|9=62|35=0|34=115|49=ACCEPTOR|52=20260317-21:35:28.203|56=INITIATOR|10=061|8=FIX.4.4|9=62|35=0|34=116|49=ACCEPTOR|52=20260317-21:35:58.524|56=INITIATOR|10=071|8=FIX.4.4|9=62|35=0|34=117|49=ACCEPTOR|52=20260317-21:36:28.001|56=INITIATOR|10=060|8=FIX.4.4|9=62|35=0|34=118|49=ACCEPTOR|52=20260317-21:36:58.105|56=INITIATOR|10=069|8=FIX.4.4|9=62|35=0|34=119|49=ACCEPTOR|52=20260317-21:37:28.388|56=INITIATOR|10=081|8=FIX.4.4|9=74|35=A|34=120|49=ACCEPTOR|52=20260317-21:38:37.908|56=INITIATOR|98=0|108=30|10=117|8=FIX.4.4|9=75|35=2|34=121|49=ACCEPTOR|52=20260317-21:38:37.908|56=INITIATOR|7=13762|16=0|10=156|8=FIX.4.4|9=62|35=0|34=122|49=ACCEPTOR|52=20260317-21:39:08.445|56=INITIATOR|10=069|8=FIX.4.4|9=62|35=0|34=123|49=ACCEPTOR|52=20260317-21:39:38.401|56=INITIATOR|10=065|8=FIX.4.4|9=62|35=0|34=124|49=ACCEPTOR|52=20260317-21:40:08.730|56=INITIATOR|10=060|8=FIX.4.4|9=62|35=0|34=125|49=ACCEPTOR|52=20260317-21:40:38.244|56=INITIATOR|10=064|8=FIX.4.4|9=62|35=0|34=126|49=ACCEPTOR|52=20260317-21:41:08.364|56=INITIATOR|10=066|8=FIX.4.4|9=62|35=0|34=127|49=ACCEPTOR|52=20260317-21:41:38.580|56=INITIATOR|10=070|8=FIX.4.4|9=62|35=0|34=128|49=ACCEPTOR|52=20260317-21:42:08.156|56=INITIATOR|10=068|8=FIX.4.4|9=62|35=0|34=129|49=ACCEPTOR|52=20260317-21:42:38.113|56=INITIATOR|10=065|8=FIX.4.4|9=62|35=0|34=130|49=ACCEPTOR|52=20260317-21:43:08.060|56=INITIATOR|10=056|8=FIX.4.4|9=62|35=0|34=131|49=ACCEPTOR|52=20260317-21:43:38.168|56=INITIATOR|10=069|8=FIX.4.4|9=62|35=0|34=132|49=ACCEPTOR|52=20260317-21:44:08.064|56=INITIATOR|10=063|8=FIX.4.4|9=62|35=0|34=133|49=ACCEPTOR|52=20260317-21:44:38.004|56=INITIATOR|10=061|8=FIX.4.4|9=62|35=0|34=134|49=ACCEPTOR|52=20260317-21:45:08.045|56=INITIATOR|10=065|