20260317-19:22:49.761149000 : 8=FIX.4.4|9=72|35=A|34=1|49=INITIATOR|52=20260317-19:22:49.761|56=ACCEPTOR|98=0|108=30|10=017|
20260317-19:23:04.759521000 : 8=FIX.4.4|9=72|35=A|34=2|49=INITIATOR|52=20260317-19:23:04.759|56=ACCEPTOR|98=0|108=30|10=017|
20260317-19:23:22.674774000 : 8=FIX.4.4|9=72|35=A|34=3|49=INITIATOR|52=20260317-19:23:22.674|56=ACCEPTOR|98=0|108=30|10=014|
